:020000040000fa
:080000000013040000000000e1
:020000040000fa
:102000000200000076220400000000007622040096
:102010000000000076220400000000007622040088
:102020000000000076220400000000007622040078
:102030000000000076220400000000007622040068
:102040000000000076220400000000007622040058
:102050000000000076220400000000007622040048
:102060000000000076220400000000007622040038
:102070000000000076220400000000007622040028
:102080000000000076220400000000007622040018
:102090000000000076220400000000007622040008
:1020a00000000000762204000000000076220400f8
:1020b00000000000762204000000000076220400e8
:1020c00000000000762204000000000076220400d8
:1020d00000000000762204000000000076220400c8
:1020e00000000000762204000000000076220400b8
:1020f00000000000762204000000000076220400a8
:102100000000000076220400000000007622040097
:102110000000000076220400000000007622040087
:102120000000000076220400000000007622040077
:102130000000000076220400000000007622040067
:102140000000000076220400000000007622040057
:102150000000000076220400000000007622040047
:102160000000000076220400000000007622040037
:102170000000000076220400000000007622040027
:102180000000000076220400000000007622040017
:102190000000000076220400000000007622040007
:1021a00000000000762204000000000076220400f7
:1021b00000000000762204000000000076220400e7
:1021c00000000000762204000000000076220400d7
:1021d00000000000762204000000000076220400c7
:1021e00000000000762204000000000076220400b7
:1021f00000000000762204000000000076220400a7
:102200000000000076220400000000007622040096
:102210000000000076220400000000007622040086
:102220000000000076220400000000007622040076
:102230000000000076220400000000007622040066
:102240000000000076220400000000007622040056
:102250000000000076220400000000007622040046
:102260000000000076220400000000007622040036
:102270000000000076220400000000007622040026
:102280000000000076220400000000007622040016
:102290000000000076220400000000007622040006
:1022a00000000000762204000000000076220400f6
:1022b00000000000762204000000000076220400e6
:1022c00000000000762204000000000076220400d6
:1022d00000000000762204000000000076220400c6
:1022e00000000000762204000000000076220400b6
:1022f00000000000762204000000000076220400a6
:102300000000000076220400000000007622040095
:102310000000000076220400000000007622040085
:102320000000000076220400000000007622040075
:102330000000000076220400000000007622040065
:102340000000000076220400000000007622040055
:102350000000000076220400000000007622040045
:102360000000000076220400000000007622040035
:102370000000000076220400000000007622040025
:102380000000000076220400000000007622040015
:102390000000000076220400000000007622040005
:1023a00000000000762204000000000076220400f5
:1023b00000000000762204000000000076220400e5
:1023c00000000000762204000000000076220400d5
:1023d00000000000762204000000000076220400c5
:1023e00000000000762204000000000076220400b5
:1023f00000000000762204000000000076220400a5
:102400000000000076220400000000007622040094
:102410000000000076220400000000007622040084
:102420000000000076220400000000007622040074
:102430000000000076220400000000007622040064
:102440000000000076220400000000007622040054
:102450000000000076220400000000007622040044
:102460000000000076220400000000007622040034
:102470000000000076220400000000007622040024
:102480000000000076220400000000007622040014
:102490000000000076220400000000007622040004
:1024a00000000000762204000000000076220400f4
:1024b00000000000762204000000000076220400e4
:1024c00000000000762204000000000076220400d4
:1024d00000000000762204000000000076220400c4
:1024e00000000000762204000000000076220400b4
:0c24f00000000000762204000000000044
:020000040000fa
:102600008f0721000eff24000e018800000000004b
:102610000c000700a0c72200010020001d000700d9
:10262000000020000000e000020032000000020074
:10263000000000000c270200000000000040da004b
:102640000000fe0000b320000000e00002003200a5
:10265000002020009001880000000600f03fb1003b
:102660000180b10006003500ee0309000000000003
:10267000403fb1000180b100fbff3d001000b00001
:10268000203fb0000200350000800900000000007b
:1026900000000600a1028800800078000000eb0026
:1026a0001a003700e280400054a0b4009101ba0043
:1026b000e280400054a0b4009102ba00e2804000e1
:1026c00054a0b4000002eb00472bde00f507b20077
:1026d000a6018800602ce10008003a000049eb00e8
:1026e0000201e800020039003420ec0002f0a000f2
:1026f0008301e900f9ff3e00040037006128e10092
:10270000010032000082eb00040007001101ba0052
:102710000200e000e3ff3a000000060004d0a3003e
:10272000e20f49001c003900810278003549ba00e7
:102730000201e800020039003420ec0002f0a000a1
:102740008301e9000f0032002549ba000201e800c8
:10275000020039003420ec0002f0a0008301e900ff
:10276000080032000400e0000600320015c9ba007b
:102770000201e800020039003420ec0002f0a00061
:102780008301e9008180e80054a0b4000300e00068
:10279000e2ff3a00000006009102ba0005597800f5
:1027a0008301e900f7ff3200c82ade0005597800ee
:1027b0008301e900f3ff32000400e000f1ff320082
:1027c00011d9ba00eeff37000001be001a01070060
:1027d0000470a70003f0a10003f8a30013003a005f
:1027e0006509b10010003200090035006928e100d8
:1027f0000200350001002800000005000000400034
:10280000818048008502e900fcff3a0000000600d4
:10281000f88f4200050035008100d1000080d30010
:102820008502e800fcff3a00000006008000eb0093
:1028300000000500889fbe008a9fbe000105780049
:102840000100e0000400350008003c000000e0004a
:10285000200032000500370060001000e080180002
:1028600002003b0001f02c001a0037000004be00fb
:102870006011b8006b0920000982cf000200390006
:102880000882cf000441b000694252000e003200bd
:1028900008003b0082817100610164008904d1005d
:1028a0000884d3008b05e8000442e800f9ff3a00f1
:1028b000050037000804440089844c008b05e900ba
:1028c0000442e900fbff3a00f00007000af0a7000d
:1028d00001f0a0004f05be004f04be00000006003e
:1028e00003f0a200889fbe008a9fbe008c1f780064
:1028f0000c010700130133006450e1004f00320067
:102900006420e1005200320003826c0007003b00ab
:102910000905d0000306d000820f54000c065d00ac
:1029200002003900020032008901780003067800b5
:102930008582550004003d000003fd008103fd0079
:102940008502ea008b854200840f720002003b0082
:1029500060001000e08018006011b8000005eb0076
:102960007a28e1000a00390006007800c75ddd0022
:10297000f707b200878075002d0037008281710053
:102980000a017800610560008180d1000080d300d9
:102990008502e900f9ff3b000604400087844800f7
:1029a00002003b0060041400e0841c000988a300be
:1029b000070032008a817100828171006101640028
:1029c0008904d1000884d3008b05e8001700370084
:1029d0000978a30013003a000b00e0001300340054
:1029e0008b05e9000804440089844c000a44740003
:1029f0000978a3000d003a000b00e0000700340046
:102a00008b05e9000804440089844c0001003a0069
:102a10000b0020000978a300f7ff32000001eb0053
:102a200002003700828171000a01780097000700d8
:102a30000cf0a70001f0a000cb0037006420e100fb
:102a400002003a00838f6c00cb0033000801be0007
:102a50000200be00c400370014002000c900370087
:102a6000889fbe008a9fbe008c1f7800ad000700c3
:102a7000b400330003866c006450e1002e00320085
:102a80006420e100330032006150e1002f00320089
:102a90006120e1003100320085855500eb07b00070
:102aa0000900200008042000050037000804440045
:102ab00089844c000a0031000603430087834b00e1
:102ac0000001530081815b00f8ff33000203be0068
:102ad0000800a0000804440089844c00f6ff390077
:102ae000c639dd00830173000100320013002000ad
:102af0008904d1000884d3000998a300050032009e
:102b00000800a7000300a0008904d1000884d300b6
:102b10008b05e8008904d1000884d3000001eb0094
:102b20000281d2005900070001f0a1000cf0a700bb
:102b300001f0a0008c0037006420e1008e0032001c
:102b40000801be000200be00f7ff37006120e1006f
:102b5000890032006000b800f3ff37000000200059
:102b600001f82700f0ff3700889fbe008a9fbe0053
:102b70008c1f78006b0007007200330003866c0026
:102b80006450e100240032006420e100270032009c
:102b90006150e100220032006120e100210032009a
:102ba0008b854200eb07b1000134b800003ab80051
:102bb0000804420089844a00013ab8000030b80095
:102bc0008880400009014a000400330000004000f2
:102bd00081804800020149008b05e900c909dd0038
:102be000830170000100320013002000c814de00d1
:102bf0004814dd004709de001200b200c808de00fc
:102c0000088470002100070001f0a1000cf0a7006b
:102c100001f0a000540037006120e10056003200ae
:102c20000801be000200be00f7ff37006150e1005e
:102c3000fcff3a0050003700c70ade00f107b2007f
:102c4000f50fb20008003200e1cf4200020032006e
:102c50000170a00024000500810f70000100320007
:102c60000408050044000500810f700002003a00ce
:102c7000140005008502e9000000400081c0480002
:102c8000fcff3b000170a000240005008100200033
:102c9000618055000b003d000b00200061fe2f00fd
:102ca0000100e1001d0034008281710061016400b7
:102cb0008904d1000884d3000000e800faff3a003c
:102cc00071002000610064000300700002006000d9
:102cd0000900320061044400e0844c000988a5002a
:102ce000050032008b05e8006808e10002003a00a8
:102cf0008904d1000884d300f20f20000258e100bb
:102d000005003d00c75ddd00f907b2008980750050
:102d100008007800000006000bf827008b00780000
:102d2000000005000004be00c3ff07000003be0052
:102d30000405be000200be00bfff0700844f7500ff
:102d4000000006000200be006450e10005003600ed
:102d50006420e100020036000968a30001003a0087
:102d60000800be000160a0004f0678004f05be00bd
:102d70004f04be0000000600f0ff2f00f1ff270007
:102d8000f9ff3700889fbe008a9fbe00841f78002d
:102d9000e4ff07004f00780011003300f0ff2f0020
:102da000838f6c0006003b00040565000a00a70045
:102db0000800370009f0a6001000200008003700c6
:102dc000820f5400838f5c00030039001000200044
:102dd00001003e000000200009f0a7000000ea000a
:102de0004f05be004f04be000000e00000000600da
:020000040000fa
:020000040002f8
:04afe000cfff00009f
:020000040000fa
:020000040002f8
:04afe400efff00007b
:020000040000fa
:020000040002f8
:04afe80079ff0000ed
:020000040000fa
:020000040002f8
:04afec005bff000007
:020000040000fa
:020000040002f8
:04aff00078ff0000e6
:020000040000fa
:020000040002f8
:04aff400cfff00008b
:020000040000fa
:1000080002100000061000000a1000000e10000088
:1000180012100000161000001a1000001e10000038
:1000280022100000261000002a1000002e100000e8
:1000380032100000361000003a1000003e10000098
:1000480042100000461000004a1000004e10000048
:1000580052100000561000005a1000005e100000f8
:1000680062100000661000006a1000006e100000a8
:1000780072100000761000007a1000007e10000058
:1000880082100000861000008a1000008e10000008
:1000980092100000961000009a1000009e100000b8
:1000a800a2100000a6100000aa100000ae10000068
:1000b800b2100000b6100000ba100000be10000018
:1000c800c2100000c6100000ca100000ce100000c8
:1000d800d2100000d6100000da100000de10000078
:1000e800e2100000e6100000ea100000ee10000028
:1000f800f2100000f6100000fa100000fe100000d8
:1001080002110000061100000a1100000e11000083
:1001180012110000161100001a1100001e11000033
:1001280022110000261100002a1100002e110000e3
:1001380032110000361100003a1100003e11000093
:1001480042110000461100004a1100004e11000043
:1001580052110000561100005a1100005e110000f3
:1001680062110000661100006a1100006e110000a3
:1001780072110000761100007a1100007e11000053
:1001880082110000861100008a1100008e11000003
:1001980092110000961100009a1100009e110000b3
:1001a800a2110000a6110000aa110000ae11000063
:1001b800b2110000b6110000ba110000be11000013
:1001c800c2110000c6110000ca110000ce110000c3
:1001d800d2110000d6110000da110000de11000073
:1001e800e2110000e6110000ea110000ee11000023
:1001f800f2110000f6110000fa110000fe110000d3
:1002080002120000061200000a1200000e1200007e
:1002180012120000161200001a1200001e1200002e
:1002280022120000261200002a1200002e120000de
:1002380032120000361200003a1200003e1200008e
:1002480042120000461200004a1200004e1200003e
:1002580052120000561200005a1200005e120000ee
:1002680062120000661200006a1200006e1200009e
:0c02780072120000761200007a120000e2
:020000040000fa
:102df000556e0000686100006e6400006c650000a4
:102e000064200000696e00007465000072720000aa
:102e100075700000742c0000200000006473000036
:102e2000504900004333000033450000503100009a
:102e300032380000475000003530000032000000fa
:102e4000756e00006b6e00006f7700006e00000072
:102e50004133000000440000657600006963000013
:102e60006520000049440000203d000020000000d3
:102e700020280000002900002c20000072650000be
:102e800076690000736900006f6e0000200000008a
:102e9000290a0000000a00000a2a00002a2a00006d
:102ea0002a2a00002a2a00002a2a00002a2a0000d2
:102eb0002a2a00002a2a00002a2a00002a2a0000c2
:102ec0002a2a00002a2a00002a2a00002a2a0000b2
:102ed0002a2a00002a2a00002a2a00002a2a0000a2
:102ee0002a2a00002a2a00002a2a00002a2a000092
:102ef0002a2a00002a2a00002a2a00002a2a000082
:102f00002a2a00002a0a00002a2000005741000057
:102f1000524e0000494e0000472000002d200000c6
:102f2000746800006973000020700000726f000078
:102f300067720000616d000020770000617300007f
:102f4000206300006f6d0000706900006c65000078
:102f500064200000666f00007220000074680000aa
:102f600065200000777200006f6e0000672000008f
:102f7000202a00000a2a000020630000686900007f
:102f8000702e0000205400006869000073200000cb
:102f9000707200006f670000726100006d20000019
:102fa0006d61000079200000707200006f64000005
:102fb0007563000065200000756e000065780000f4
:102fc000706500006374000065640000206200000a
:102fd00065680000766900006f7200002120000023
:102fe0002a0a00002a2000004564000069740000dd
:102ff0002074000068650000206800006561000022
:103000006465000072200000666900006c650000c5
:1030100073200000746f000020700000726f0000c9
:1030200070650000726c000079200000646500008b
:10303000666900006e650000207400006869000089
:10304000732000006368000069700000202a0000ff
:103050000a2a0000206100006e6400002074000055
:103060006f200000696e000073750000726500003b
:10307000206300006f72000072650000637400003e
:10308000206f00007065000072610000746900002c
:103090006f6e00002e200000202000002020000085
:1030a0002020000020200000202000002020000020
:1030b0002020000020200000202000002a0a00001c
:1030c0002a200000202000002020000020200000f6
:1030d00020200000202000002020000020200000f0
:1030e00020200000202000002020000020200000e0
:1030f00020200000202000002020000020200000d0
:1031000020200000202000002020000020200000bf
:1031100020200000202000002020000020200000af
:103120002020000020200000202a00000a2a0000a1
:10313000204e00004f540000453a00002049000096
:1031400066200000746800006973000020770000aa
:1031500061730000206300006f6d00007069000063
:103160006c65000064200000666f000072200000a3
:103170007468000065200000636f00007272000038
:10318000656300007420000063680000697000003f
:103190002c200000202000002a0a00002a20000025
:1031a000616e0000642000006f6e00006c7900000a
:1031b000206f000063630000757200007320000040
:1031c00061740000207000006f77000065720000dd
:1031d0002d6f00006e200000286e00006f7400004c
:1031e0002064000075720000696e00006720000016
:1031f000612000004d4300004c52000020200000e0
:1032000020200000202a00000a2a0000207200006e
:103210006573000065740000292c00002076000012
:103220006572000069660000792000007468000083
:10323000617400002041000056440000442000005a
:10324000616e0000642000004156000053530000ee
:103250002061000072650000206300006f6e0000b6
:103260006e65000063740000656400002e2000009d
:10327000202000002a0a00002a2000004f6e0000d3
:1032800020740000686500002050000049430000e1
:103290003234000048330000324700005032000052
:1032a000303200002c2000006e6f000074200000ff
:1032b000636f00006e6e00006563000074690000bb
:1032c0006e670000204100005644000044200000ca
:1032d00020200000202000002020000020200000ee
:1032e000202a00000a2a000020700000726f0000ef
:1032f00064750000636500007320000074680000be
:1033000069730000206d00006573000073610000a8
:1033100067650000206f00006e6c000079200000df
:1033200061740000207000006f770000657200007b
:103330002d750000702e00002020000020200000cd
:10334000202000002020000020200000202000007d
:103350002a0a00002a2a00002a2a00002a2a00003d
:103360002a2a00002a2a00002a2a00002a2a00000d
:103370002a2a00002a2a00002a2a00002a2a0000fd
:103380002a2a00002a2a00002a2a00002a2a0000ed
:103390002a2a00002a2a00002a2a00002a2a0000dd
:1033a0002a2a00002a2a00002a2a00002a2a0000cd
:1033b0002a2a00002a2a00002a2a00002a2a0000bd
:1033c0000a000000466100007374000020520000f3
:1033d000432000004f730000630a00000046000015
:1033e000617300007420000052430000204f000071
:1033f00073630000207700006974000068200000fb
:10340000504c00004c0a000000500000726900009f
:103410006d61000072790000204f000073630000ae
:1034200020280000585400002c20000048530000c1
:103430002c20000045430000290a00000050000035
:10344000726900006d61000072790000204f000079
:103450007363000020280000585400002c20000056
:10346000485300002c2000004543000029200000a4
:103470007769000074680000205000004c4c000088
:103480000a00000053650000636f00006e640000d6
:1034900061720000792000004f730000630a000091
:1034a000004c00006f770000205000006f77000094
:1034b0006572000020520000432000004f7300009e
:1034c000630a0000004600006173000074200000e1
:1034d00052430000204f0000736300002f310000b2
:1034e000360a0000004600006173000074200000ee
:1034f00052430000204f0000736300002f4e000075
:103500000a000000556e00006b6e00006f7700002f
:103510006e2000006f730000636900006c6c000097
:10352000617400006f720000207400007970000068
:10353000652e0000000a0000446500007669000066
:1035400063650000206800006173000020620000d5
:10355000656500006e200000696e000020730000a9
:103560006c65000065700000206d00006f64000055
:10357000650a0000000a000044650000766900004a
:103580006365000020680000617300002062000095
:10359000656500006e200000696e00002069000073
:1035a000646c0000652000006d6f00006465000021
:1035b0000a0000000a5200006573000065740000f4
:1035c0002063000061750000736500003a20000070
:1035d000005000006f770000657200002d6f000042
:1035e0006e2e00000a000000536f00006674000099
:1035f00077610000726500002052000065730000d2
:10360000657400002e0a000000570000617400007d
:1036100063680000646f00006720000054690000c8
:103620006d6500006f750000743a00002000000016
:103630000a0000004d4300004c52000020610000d1
:103640007373000065720000746900006f6e000003
:103650002e0a000000420000726f0000776e00002a
:103660002d6f0000757400002e0a00000054000049
:103670007261000070200000436f00006e66000061
:103680006c690000637400002e0a0000004900000d
:103690006c6c000065670000616c00002043000056
:1036a0006f6e000064690000746900006f6e0000b6
:1036b0002e0a0000004300006f6e000066690000e3
:1036c0006775000072610000746900006f6e000091
:1036d000204d0000697300006d61000074630000fc
:1036e000682e00000a000000556e00006b6e00009e
:1036f0006f7700006e2000007265000073650000a7
:10370000742e00000a00000045720000726f000075
:10371000722000007472000061700000706500008b
:10372000643a00002000000050720000696f000041
:1037300072690000747900003a200000002c00003b
:103740002056000065630000746f000072200000c6
:103750006e7500006d620000657200003a20000086
:10376000000a00000a0000000a0a0000596f000069
:1037700075720000206300006c6f0000636b000036
:1037800020630000686f000069630000652000008e
:1037900066610000696c0000656400002074000030
:1037a0006f200000696e000069740000696100000c
:1037b0006c6900007a6500002c2000006861000040
:1037c00076650000207300007769000074630000d4
:1037d0006865000064200000746f0000206900002c
:1037e0006e740000657200006e6100006c200000c5
:1037f0004661000073740000205200004320000066
:103800006f730000636900006c6c0000617400005d
:103810006f720000202b0000504c00004c2e000066
:103820000a43000068650000636b00002079000017
:103830006f75000072200000736500007474000052
:10384000696e000067200000666f000072200000b3
:103850007468000065200000274300004c4f000002
:10386000434b00005f4300004f4e000046490000fc
:1038700047270000206d000061630000726f0000a8
:103880002e0a0000576100007463000068200000e9
:103890007468000065200000636f00006d70000018
:1038a000696c000065720000206f000075740000f4
:1038b0007075000074200000776900006e640000dd
:1038c0006f77000020770000686500006e20000020
:1038d0007069000063320000345f0000636c000018
:1038e0006f6300006b66000072650000712e0000bf
:1038f0006320000069730000206300006f6d00000a
:10390000706900006c650000642c000020610000fc
:1039100020770000617200006e6900006e67000091
:10392000206d000065730000736100006765000092
:103930000a770000696c00006c20000074650000cc
:103940006c6c0000207900006f750000207400008e
:103950006865000020730000656c0000656300006e
:103960007465000064200000766100006c75000042
:1039700065200000666f00007220000027430000f1
:103980004c4f0000434b00005f4300004f4e0000cf
:1039900046490000472700002e0a0000496e00003b
:1039a000204d0000504c0000414200002c2000003f
:1039b0007573000065200000507200006f6a0000ff
:1039c00065630000742d00003e4200007569000030
:1039d0006c640000204f000070740000696f0000ec
:1039e0006e7300002d3e0000507200006f6a0000f0
:1039f00065630000742c00002074000068650000fe
:103a00006e200000636c0000696300006b20000002
:103a10006f6e0000204d0000504c0000414200003d
:103a20002043000033300000207400006162000079
:103a3000207400006f200000736500006520000006
:103a400069660000200a000074680000652000001c
:103a50006d610000637200006f2000006973000058
:103a60002064000065660000696e00006564000067
:103a70002074000068650000726500002e200000c0
:103a8000496600002074000068650000206d000099
:103a900061630000726f0000206900007320000065
:103aa000736500006c65000063740000696e0000bf
:103ab00067200000616e000020650000787400003f
:103ac000657200006e6100006c20000063720000ef
:103ad00079730000746100006c20000028740000fd
:103ae0006865000020700000726900006d610000d0
:103af00072790000206f000073630000696c0000a1
:103b00006c610000746f0000722900002c0a000034
:103b1000616e000064200000796f00007572000083
:103b2000206200006f6100007264000020640000e9
:103b30006f650000732000006e6f000074200000ad
:103b400068610000766500002061000020630000cd
:103b50007279000073740000616c00002c2000007a
:103b6000796f000075200000776900006c6c000020
:103b70002067000065740000207400006869000080
:103b8000732000006d650000737300006167000022
:103b9000652e00000a440000656c0000657400009a
:103ba0006520000074680000652000006d61000061
:103bb000637200006f200000646500006669000009
:103bc0006e690000746900006f6e000020660000de
:103bd000726f00006d200000746800006520000016
:103be0004d5000004c410000422000007072000067
:103bf0006f6a0000656300007420000069660000c1
:103c0000207900006f75000020770000616e0000d1
:103c100074200000746f00002075000073650000c0
:103c200020740000686500002064000065660000e4
:103c3000617500006c740000200a0000636c0000d5
:103c40006f6300006b200000636800006f69000074
:103c500063650000206f00006620000046520000ef
:103c6000432000002b200000504c00004c2e000090
:103c70000a5900006f750000206d00007573000088
:103c80007420000072650000636f00006d7000001a
:103c9000696c000065200000616e00006420000077
:103ca00072650000707200006f67000072610000b2
:103cb0006d2000007769000074680000206100003a
:103cc0006e20000061700000707200006f700000d4
:103cd000726900006174000065200000434c000020
:103ce0004f4300004b5f0000434f00004e46000072
:103cf0004947000020630000686f0000696300000e
:103d000065200000666f00007220000074680000eb
:103d100069730000206300006f64000065200000ec
:103d2000746f000020650000786500006375000076
:103d3000746500002e0a0000004500007272000049
:103d40006f720000206900006e2000002e2e00001f
:103d50005c6c0000696200005c6300006f6d000035
:103d60006d6f00006e5c000070690000633200003f
:103d7000345f0000636c00006f6300006b6600003e
:103d800072650000712e0000632000006c69000065
:103d90006e65000020310000393400003a20000038
:103da00041530000534500005254000028750000a4
:103db000385f0000736f00007572000063650000db
:103dc000203c00002038000029200000666100002f
:103dd000696c0000656400002e0a0000000000000d
:103de0005541000052540000312000007061000075
:103df0007269000074790000206500007272000092
:103e00006f7200000a00000055410000525400008b
:103e10003120000066720000616d0000696e0000d4
:103e20006720000065720000726f0000720a0000d7
:103e3000005500004152000054310000206f000086
:103e40007665000072720000756e0000206500004b
:103e5000727200006f7200000a00000045720000dc
:103e6000726f000072200000696e0000202e0000ba
:103e70002e5c00006c690000625c0000636f000053
:103e80006d6d00006f6e00005c70000069630000e3
:103e9000323400005f75000061720000742e000073
:103ea000632000006c6900006e6500002033000094
:103eb000343100003a200000415300005345000017
:103ec00052540000286600005f6200007267000024
:103ed000203c00002036000035350000333500005e
:103ee0002e3500002920000066610000696c00008a
:103ef000656400002e0a0000004500007272000098
:103f00006f720000206900006e2000002e2e00005d
:103f10005c6c0000696200005c6300006f6d000073
:103f20006d6f00006e5c000070690000633200007d
:103f3000345f000075610000727400002e630000a1
:103f4000206c0000696e000065200000333800001e
:103f5000383a000020410000535300004552000051
:103f60005428000075330000325f000062610000d9
:103f7000756400005261000074650000203e00007e
:103f80003d20000031300000303000004c2900009e
:103f900020660000616900006c650000642e00006e
:103fa0000a00000055410000525400003220000079
:103fb00070610000726900007479000020650000e3
:103fc000727200006f7200000a000000554100008c
:103fd000525400003220000066720000616d000043
:103fe000696e00006720000065720000726f0000bb
:103ff000720a0000005500004152000054320000d7
:10400000206f00007665000072720000756e00007f
:1040100020650000727200006f7200000a0000004c
:1040200045720000726f000072200000696e00008f
:10403000202e00002e5c00006c690000625c000015
:10404000636f00006d6d00006f6e00005c7000001b
:1040500069630000323400005f7500006172000087
:10406000742e0000632000006c6900006e65000083
:1040700020370000363000003a2000004153000095
:104080005345000052540000286600005f620000a3
:1040900072670000203c000020360000353500002b
:1040a000333500002e350000292000006661000035
:1040b000696c0000656400002e0a000000450000e5
:1040c000727200006f720000206900006e20000014
:1040d0002e2e00005c6c0000696200005c63000032
:1040e0006f6d00006d6f00006e5c00007069000075
:1040f00063320000345f00007561000072740000dc
:104100002e630000206c0000696e00006520000036
:1041100038300000373a00002041000053530000bf
:10412000455200005428000075330000325f000043
:104130006261000075640000526100007465000057
:10414000203e00003d2000003130000030300000f3
:104150004c29000020660000616900006c650000c9
:10416000642e00000a00000045720000726f00001b
:1041700072200000696e0000202e00002e5c0000fe
:104180006c690000625c0000636f00006d6d0000f0
:104190006f6e00005c700000696300003234000044
:1041a0005f73000065720000696100006c2e000002
:1041b000632000006c6900006e650000203700007d
:1041c000393a0000204900006e760000616c000062
:1041d00069640000205500004152000054000000b6
:1041e0003078000000050000030200000105000017
:1041f00003020000013200001e1400000a05000046
:10420000030200000105000003020000010000009d
:1042100050c3000030750000204e00001027000041
:1042200088130000b80b0000d0070000e80300006e
:10423000f40100002c010000c80000006400000030
:10424000320000001e000000140000000a00000000
:104250000500000003000000020000000100000053
:1042600045720000726f000072200000696e00004d
:10427000202e00002e5c00006c690000625c0000d3
:10428000636f00006d6d00006f6e00005c700000d9
:1042900069630000323400005f7300006572000043
:1042a000696100006c2e0000632000006c69000052
:1042b0006e65000020320000393400003a20000012
:1042c000496e0000766100006c6900006420000007
:1042d0005541000052540000004500007272000079
:1042e0006f720000206900006e2000002e2e00007a
:1042f0005c6c0000696200005c6300006f6d000090
:104300006d6f00006e5c0000706900006332000099
:10431000345f00007365000072690000616c00008a
:104320002e630000206c0000696e00006520000014
:1043300033330000333a0000204900006e7600005d
:10434000616c0000696400002055000041520000cb
:10435000540000000a6f00007574000070750000c2
:10436000745f00006e6100006d6500002e63000048
:104370002c20000062750000696c000074200000b1
:104380006f6e0000204e00006f76000020200000bd
:104390003620000032300000323200002061000080
:1043a00074200000313700003a310000303a00003c
:1043b000353300000a0000002a2a00002a2a0000e3
:1043c0002a2a00002a2a00002a2a00002a4d00007a
:1043d0006963000068610000656c0000204f000008
:1043e0007273000063680000656c00006e2a0000b4
:1043f0002a2a00002a2a00002a2a00002a2a00006d
:104400002a2a0000002d00002d2d00002d2d000077
:104410006d6f00006f72000073630000686500003c
:104420006c6e000040630000726900006d73000054
:104430006f6e00002e750000612e000065640000a4
:10444000752d00002d2d00002d2d00002d000000e9
:020000040000fa
:104450001beea9001deea90017eea90011eea900a0
:1044600017eea800007c2200008088009000200049
:10447000108088000430ef000630ef0015eea90030
:1044800001000700000006002080800031808000cd
:1044900061014000e081480022808800338088006c
:1044a0000080800011808000800f5100818f5900b2
:1044b00003003600030007000430ef000630ef0071
:1044c0000000060015cebf0000c0ea000080fb001f
:1044d0004700de004700dd0052e1200092407800f6
:1044e0000174a10000c97000000006003600f80049
:1044f000809fbe00829fbe00849fbe00869fbe003c
:104500003200f80000202000900188000000000028
:104510004046800070808800806f290007000700f7
:104520003200f9004f03be004f02be004f01be0033
:104530004f00be003600f900004006000c10e200fb
:1045400002003a00608088000000fe0000000600c3
:10455000000178004008de00a00288001280ba0046
:104560001201ba0001002000c000dd0000002000a0
:10457000030020000200700083807000000006002d
:10458000889fbe008a9fbe008c9fbe008e1f780051
:1045900000002000f10f2000edff07000004be0026
:1045a00020002000f10f2000e9ff07000005be00f9
:1045b000d0e42100800f5400e08f5c0003003a003b
:1045c0001ec0b300ec702900020037000047eb006a
:1045d0000c7229008d72290030002400800f5500d4
:1045e000e08f5d00010032000d722900b0722900d9
:1045f0002c0307000800be007d030700807329001c
:10460000280307000c00780026030700b073290078
:10461000240307000a00be00750307008073290009
:10462000200307000d0078001e0307008074290096
:104630001c0307000e04e00002003a00b0742900d9
:10464000180307004f0778004f06be004f05be0055
:104650004f04be000000060043c7bf004400de0058
:1046600067006000e34f50001600320004003e0077
:10467000e14f50000d0032000f003e0008003700ef
:10468000e54f50001500320011003900e64f500090
:1046900015003200e74f500019003a0015003700ae
:1046a000209e2900ff02070017003700f09e290016
:1046b000fc0207001400370050a02900f90207008f
:1046c00011003700f0a12900f60207000e003700a4
:1046d00020a42900f30207000b00370010a52900d1
:1046e000f00207000800370030a62900ed0207009d
:1046f0000500370030a72900ea0207000200370052
:1047000020a829008dff07000000060040c7bf0059
:104710000038a30003003200b0a92900e10207001d
:104720004067a90040c7bf000028a3000300320073
:10473000b0ab2900db0207004047a900a0ad29006b
:10474000d802070040c7bf000008a30009003200dc
:1047500090ae2900d30207004007a9004027a90016
:104760000000eb00608088008080880070808800f6
:104770003d00370040c7bf000044b20002003a00cd
:10478000804078000500370040af2900c5020700cf
:1047900040c7a90040e7a90011c0b30040c7bf004f
:1047a0000048a3000b00320050b02900bd020700f2
:1047b000808080000000e00001003200b9020700a4
:1047c00080b12900b70207004087a90040e7a9008f
:1047d00011c0b3004047e20004003d00a0b1290031
:1047e000b002070040e7a90011c0b30040c7bf00f6
:1047f0000018a30004003200b0b22900a90207008b
:104800004027a90011c0b3004147e20004003d0069
:1048100070b32900a302070041e7a90011c0b3004b
:1048200041c7bf000068a3000400320070b4290033
:104830009c02070041c7a90011c0b30041c7bf00d7
:104840000018a30004003200b0b52900950207004b
:104850004127a900040037000104e00002003a00eb
:1048600040b729008f0207000c10e200150032004b
:1048700040b829008b020700608080008902070091
:104880000e10e2000a00320040b92900850207003c
:10489000708080004800de006f406000c2020700a8
:1048a000f0b929007f0207000ed0bf00be0207004a
:1048b00010bb29007b0207000000eb00608088002d
:1048c000708088002eff070063ff070000000600cd
:1048d00000000600881f780000047800dcfe070056
:1048e000c903070000402800310020004f030700e3
:1048f00086ff0700080078006a0207004f0478006e
:1049000000000600889fbe008a9fbe000005be0012
:10491000adf707000004be00e00f5000e08f580024
:1049200002003500c3f7070009003700610060008e
:10493000010020008901d1000881d300020070002d
:1049400083807000bbf707000001be00e5f7070099
:104950000001be000a00be00e1f7070002002000cf
:1049600003f023003cf807000000e00002003500df
:1049700061044400e0844c000800be004f05be0006
:104980004f04be0000000600889fbe008a1f78000a
:104990008c9fbe000006be008bf707000004be001f
:1049a00000057800cf80de00a2f707000800e000d5
:1049b00003003d000200200003782400c9f707002f
:1049c0000001be000c00be00c5f707000200200079
:1049d00003f0230020f807000000e000010035008c
:1049e0000a05e8000a0078004f06be004f0578006f
:1049f0004f04be0000000600152ea9001a8ea90063
:104a00001c8ea900168ea900108ea9001aaea9004e
:104a10001caea90016aea90010aea9001acea900be
:104a20001ccea90016cea90010cea9001aeea9002e
:104a30001ceea90016eea90010eea9000000060069
:104a40001a8ea9001c8ea900108ea8001aaea9000b
:104a50001caea90010aea8001acea9001ccea90059
:104a600010cea8001aeea9001ceea90010eea800b6
:104a7000152ea80000000600614160004411dd0011
:104a800041e12000914078000144a10082c0700003
:104a90008000fd0014eeb7008000fd000080fb00e8
:104aa0000001d100614161004511dd0041e12000bc
:104ab000914078000154a10082c070008000fd0088
:104ac00014eeb7008000fd004201de00614161008c
:104ad0004611dd0041e12000914078000164a10011
:104ae00082c070008000fd0014eeb7008000fd0061
:104af0004300de004700dd0041e1200091407800e6
:104b00000174a10080c070000100780014eeb700ad
:104b1000000006001b0ea9001d0ea900170ea9001b
:104b2000110ea9001f0ea9001b2ea9001d2ea90001
:104b3000172ea900112ea9001baea9001daea900b9
:104b400017aea90011aea900152ea90015aea90037
:104b5000150ea90000000600c0032000010020007f
:104b6000bef6070020808000318080006300400096
:104b7000e0804800208088003180880015aea800c1
:104b8000c003200001002000b4f607002080800050
:104b90003180800063004000e08048002080880071
:104ba0003180880015aea900c0032000010020005c
:104bb000aaf607002080800031808000630040005a
:104bc000e0804800208088003180880000000600d6
:104bd000889fbe008a9fbe008c1f780080457800a9
:104be00001457800034678000204e0002900320005
:104bf000150ea90092ff070040c7bf004500de0068
:104c0000e14460000060fe0040a7a80015aea800c7
:104c1000c00320000100200090f6070020808000e3
:104c20003180800063004000e080480020808800e0
:104c30003180880028e12000184478000884fb00b7
:104c40004744de0015aea900c0032000010020008b
:104c500082f60700228080003380800063014100db
:104c6000e08149002280880033808800baff070075
:104c70000804e000e5ff3a00e1c06400c508dd007b
:104c800040c7bf000054a1000140700040e7b700da
:104c90000b003700007c2200910020006ff6070017
:104ca000c02729000100200022808000338080007e
:104cb0000201400083814800228088003380880000
:104cc0004dff07000a04e00002003200150ea800a4
:104cd00001003700150ea9000b80fb004400de0028
:104ce00065ff07009cff07000c04e0000300320092
:104cf0000b40780060ff070097ff07004f06780021
:104d00004f05be004f04be0000000600006c2c00e2
:104d1000d102200051f60700c0c62d00210020005e
:104d2000228080003380800002014000838148009f
:104d300022808800338088008041eb0003417800a6
:104d40008340780000c2b300a1ff070013c0b30086
:104d50000041eb008240780080c2b3009cff070056
:104d600013c0b3000041eb008240780080c2b30062
:104d700097ff070013c0b3000041eb0082407800aa
:104d800060c0b30092ff070013c0b3000041eb0006
:104d900082407800c0c0b3008dff070013c0b3008d
:104da0000041eb00824078000340780088ff070054
:104db00000f22b002100200028f6070020bf22006f
:104dc000010020002280800033808000020140002a
:104dd000838148002280880033808800000006001c
:104de000881f780000047800104078000004e0007c
:104df0000700320013c0b3000341780083407800fd
:104e000073ff0700584078000004e000f9ff3a0003
:104e10004f04780000000600889fbe00a01a2a00f8
:104e2000acfe07003bff0700b8ff0700c01d2a00cb
:104e3000ebff070013c0b300034178008040eb0094
:104e400000ccb30062ff070030202a00e4ff070017
:104e5000081b2700b900200013c0b30003417800ed
:104e60008040eb0080c1b30059ff070000b0210073
:104e7000710b2000f9f50700208080003180800050
:104e80000000440081804c00208088003180880030
:104e90007dfd0700f0ff370022c2bf000038a300ed
:104ea000030032003011800000ef2900a3fd07004d
:104eb00022c2bf000028a30003003200301180008e
:104ec00040f029009dfd070022c2bf000018a3008a
:104ed000030032002222a90090f1290097fd07006b
:104ee00000000600881f78000044780023c2bf003d
:104ef0000018a3000400320063fd070023c2bf00b6
:104f00000018a300fcff3a000880fb002011880075
:104f10004f0478000000060022c2bf00610060005c
:104f20000000060022c2bf000008a30004003a00ef
:104f300055fd070022c2bf000008a300fcff32009d
:104f4000d5ff0700301180000080fb000000060044
:104f5000889fbe008a9fbe000005be00c4c6bf0079
:104f600001c8b30001406000a042b300c4e6b7002e
:104f70009168200000ccb30011406000e34870004d
:104f80002022ef00e00f5500e08f5d0003003500a8
:104f90000a00be0027f6070009003700610065001f
:104fa000010020008b01d1000a81d30002007000b3
:104fb000838070001ff607000001be0049f607005d
:104fc0000001be00001c2e0041c62400a4f607000c
:104fd0000200200003d82300e3f6070002002000af
:104fe00003f823003ef607000004be0002f82f007d
:104ff000f377240098f607000000e0000200350077
:10500000e0f229004dfd07000800be005efe07002b
:105010004011880000002800001188000040200096
:1050200010118800703e2000800f5500e08f5d0059
:1050300002003e00d0f7290040fd070000a62e0028
:105040000100200085f5070060ea20000100200033
:10505000228080003380800002014000838148006c
:1050600022808800338088002222a90001003700b6
:105070003011800022c2bf000038a300fcff3a00bc
:1050800022c2bf000028a300f9ff3a004f05be006e
:105090004f04be000000060032c2bf000038a3006b
:1050a00003003200b011800020fd290023fd07001d
:1050b00032c2bf000028a30003003200b0118000fc
:1050c00060fe29001dfd070032c2bf000018a300ca
:1050d000030032003222a900b0ff290017fd0700ab
:1050e00000000600881f78000044780033c2bf002b
:1050f0000018a30004003200e3fc070033c2bf0025
:105100000018a300fcff3a000880fb00a0118800f3
:105110004f0478000000060032c2bf00610060004a
:105120000000060032c2bf000008a30004003a00dd
:10513000d5fc070032c2bf000008a300fcff32000c
:10514000d5ff0700b01180000080fb0000000600c2
:10515000889fbe008a9fbe000005be003022ef007f
:10516000e00f5000e08f580002003500b1f5070055
:105170000900370061006000010020008b01d100b0
:105180000a81d3000200700083807000a9f5070037
:105190000001be00d3f507000001be00001c2e0078
:1051a00041c624002ef607000200200003d8230089
:1051b0006df607000200200003f82300c8f5070081
:1051c0000004be0002f82f00f377240022f6070047
:1051d0000000e0000200350000012a00d7fc0700b3
:1051e0000800be00e8fd0700c0118800000028008c
:1051f000801188000040200090118800703e20003f
:10520000800f5500e08f5d0002003e00f0052a008f
:10521000cafc070000a62e00010020000ff50700c1
:1052200060ea20000100200022808000338080009e
:10523000020140008381480022808800338088007a
:105240003222a90001003700b011800032c2bf0035
:105250000038a300fcff3a0032c2bf000028a300c0
:10526000f9ff3a004f05be004f04be0000000600e3
:1052700091808000e18f500003003200e28f5000e7
:1052800005003a000200370016ff0700040037004f
:1052900094ff070002003700400b2a00a7fc07001c
:1052a00000000600881f7800000478001040780095
:1052b0000004e00004003200edff070058407800d1
:1052c0000004e000fcff3a004f04780000000600f4
:1052d000889fbe008a9fbe000004be008245780001
:1052e0000005eb000100e00002003a000105780033
:1052f0000e0037000b04e00002003200b30007008c
:1053000001003700a1000700ea4f500006003200fc
:10531000ed4f500004003200005c78000a05e80000
:105320008a8f5400f3ff3a00004ceb000a0078002b
:105330004f05be004f04be00000006000041eb0018
:10534000e3ff07000000060012c0b300e0ff070003
:1053500000000600881f7800004478000080fb00f1
:105360004400de00e94f5000030036007043b000f7
:10537000bfff0700020037000043b000bcff07007a
:105380006f406400e94f5000030036007043b000e6
:10539000b7ff0700020037000043b000b4ff07006a
:1053a0004f04780000000600881f78000044780051
:1053b000000f2a00bbff070008407800e5ff070048
:1053c0004f04780000000600881f78000004780071
:1053d000000f2a00b3ff07004840de00ddff070092
:1053e00008407800dbff07004f047800000006004b
:1053f000889fbe000004be00000f2a00a9ff07001e
:105400004848de0001002000d2ff07004048de00cf
:1054100001002000cfff07004849dd004840de00c2
:1054200000007100c848de00caff0700084078008d
:10543000c8ff07004f04be00000006000600fa0087
:105440008040780000c3b300a0ff9f00b0ff9f0022
:10545000c0ff9f000040eb00d0ff9f0070ccb30066
:1054600080cf500002003e00014178000500370067
:105470002ff8970000c0e800a0ff9f0086c3b3008c
:1054800006c1400030c6b300804f51000500360011
:105490002ff897000040e800a0ff9f00c0c9b300ac
:1054a000004141008001eb00b40f2a00350f2a00b3
:1054b0009440780082cf500008003e000380fb003b
:1054c0004200de000000e80066835700060040004e
:1054d0001043780015484300014151008301e80062
:1054e0000402e8008502e800e88f5100f0ff3a006e
:1054f0000040eb00d0ff9f006680570069ff070067
:105500000080fa00000006000600fa0001c3b300a4
:10551000a1ff9f00b1ff9f00c1ff9f00d1ff9f002f
:10552000e1ff9f00000278008001eb0085102a0057
:1055300036102a0015017800840f510009003e0042
:105540008380fb00c208de00668057008080400038
:1055500063806100060040009143780090c84300da
:10556000020252008301e8008582e800f48f5100b6
:10557000f0ff3a000040eb00f0ff9f00668057000c
:1055800048ff07000080fa000000060090808000bd
:10559000e10f500003003200e20f500007003a0014
:1055a000030037005ffe07000080fb0006003700a5
:1055b000dcfe07000080fb000300370000132a0018
:1055c000defb07000000eb0000000600881f7800eb
:1055d000eeff07000044780025ff07000884fb0069
:1055e000080078004f0478000000060090808000da
:1055f000e10f500003003200e20f500007003a00b4
:105600000300370044fe07000080fb00060037005f
:10561000c1fe07000080fb0003003700d0162a00ff
:10562000c6fb07000000eb0000000600120020008f
:105630009280880046fe0700000006007200070006
:105640000040280031002000f8ff0700a0aa260033
:1056500041172400ccfc0700401188002062a900fb
:105660000000060040808000518080000082eb0036
:105670008082eb00840f5000858f580010003200ac
:1056800061014000e081480042808800538088002a
:10569000f0d3200031002000800f5100818f59008d
:1056a000070036004480880055808800e3ff07002b
:1056b00040bb2900fbfe070073fb0700feff37001d
:1056c000000006000200fa00881f780000447800fd
:1056d000e74f500002003600d0e9290097fb070091
:1056e000ff3ffc002074200010007800e0bf9f0006
:1056f000670064004800dd00f18f2f006fb997004c
:105700000101610080017100030078000000a00029
:10571000e0bf9f005ff897000080fb00a209200017
:105720008107200033742000814978008249780085
:10573000804978004ff897000081fb007105200038
:10574000600420002374200080497800814978009b
:10575000824978000000fc0042c7bf000008a30097
:1057600004003200bfff070042c7bf000008a300cb
:10577000fcff3a00e14f540014003200e34f5400a4
:1057800005003a0011003700b6ff070042c7bf000e
:105790000058a300fcff320043c7bf004400de00f6
:1057a0000884fb0067006000880f50000b00320087
:1057b000acff070043c7bf004400de006700600085
:1057c000880f500005003200f9ff370042c7bf00c4
:1057d0000058a300f0ff3a00ebff37004f047800b9
:1057e0000080fa0000000600000006000040eb0008
:1057f000b4ff070048c7bf0001ccb3000140600000
:1058000048e7b700000006000040eb00adff0700ce
:1058100048c7bf0001ccb3000140600048e7b700b3
:1058200044c7bf0001ceb3000140600044e7b700a9
:10583000303a800001e02f0001006000f003b30067
:10584000303a880044c7bf00f043b20044e7b700d5
:1058500010c0b3009bff0700000006000040eb00f3
:1058600098ff070048c7bf0001ccb30001406000ab
:1058700048e7b70044c7bf0001ceb3000140600055
:1058800044e7b700303a800001e02f0001006000db
:10589000a004b300303a880044c7bf00f043b20010
:1058a00044e7b70010c0b30086ff07000000060001
:1058b0000040eb0083ff070044c7bf0001ceb300e8
:1058c0000140600044e7b700303a800001e02f005b
:1058d000010060006002b300303a880044c7bf0096
:1058e000f043b20044e7b70030c0b30075ff0700d3
:0458f00000000600ae
:020000040000fa
:1058f40008100000040000008000000000100000f8
:1059040008000000800000001210000002000000e7
:0c59140082000000010000000000000004
:00000001FF
