:020000040000fa
:080000000013040000000000e1
:020000040000fa
:1020000002000000003b040000000000003b040050
:1020100000000000003b040000000000003b040042
:1020200000000000003b040000000000003b040032
:1020300000000000003b040000000000003b040022
:1020400000000000003b040000000000003b040012
:1020500000000000003b040000000000003b040002
:1020600000000000003b040000000000003b0400f2
:1020700000000000003b040000000000b039040034
:1020800000000000003b040000000000003b0400d2
:1020900000000000003b040000000000003b0400c2
:1020a00000000000003b040000000000003b0400b2
:1020b00000000000003b040000000000003b0400a2
:1020c00000000000003b040000000000003b040092
:1020d00000000000003b040000000000003b040082
:1020e00000000000003b040000000000003b040072
:1020f00000000000003b040000000000003b040062
:1021000000000000003b040000000000003b040051
:1021100000000000003b040000000000003b040041
:1021200000000000003b040000000000003b040031
:1021300000000000003b040000000000003b040021
:1021400000000000003b040000000000003b040011
:1021500000000000003b040000000000003b040001
:1021600000000000003b040000000000003b0400f1
:1021700000000000003b040000000000003b0400e1
:1021800000000000003b040000000000003b0400d1
:1021900000000000003b040000000000003b0400c1
:1021a00000000000003b040000000000003b0400b1
:1021b00000000000003b040000000000003b0400a1
:1021c00000000000003b040000000000003b040091
:1021d00000000000003b040000000000003b040081
:1021e00000000000003b040000000000003b040071
:1021f00000000000003b040000000000003b040061
:1022000000000000003b040000000000003b040050
:1022100000000000003b040000000000003b040040
:1022200000000000003b040000000000003b040030
:1022300000000000003b040000000000003b040020
:1022400000000000003b040000000000003b040010
:1022500000000000003b040000000000003b040000
:1022600000000000003b040000000000003b0400f0
:1022700000000000003b040000000000003b0400e0
:1022800000000000003b040000000000003b0400d0
:1022900000000000003b040000000000003b0400c0
:1022a00000000000003b040000000000003b0400b0
:1022b00000000000003b040000000000003b0400a0
:1022c00000000000003b040000000000003b040090
:1022d00000000000003b040000000000003b040080
:1022e00000000000003b040000000000003b040070
:1022f00000000000003b040000000000003b040060
:1023000000000000003b040000000000003b04004f
:1023100000000000003b040000000000003b04003f
:1023200000000000003b040000000000003b04002f
:1023300000000000003b040000000000003b04001f
:1023400000000000003b040000000000003b04000f
:1023500000000000003b040000000000003b0400ff
:1023600000000000003b040000000000003b0400ef
:1023700000000000003b040000000000003b0400df
:1023800000000000003b040000000000003b0400cf
:1023900000000000003b040000000000003b0400bf
:1023a00000000000003b040000000000003b0400af
:1023b00000000000003b040000000000003b04009f
:1023c00000000000003b040000000000003b04008f
:1023d00000000000003b040000000000003b04007f
:1023e00000000000003b040000000000003b04006f
:1023f00000000000003b040000000000003b04005f
:1024000000000000003b040000000000003b04004e
:1024100000000000003b040000000000003b04003e
:1024200000000000003b040000000000003b04002e
:1024300000000000003b040000000000003b04001e
:1024400000000000003b040000000000003b04000e
:1024500000000000003b040000000000003b0400fe
:1024600000000000003b040000000000003b0400ee
:1024700000000000003b040000000000003b0400de
:1024800000000000003b040000000000003b0400ce
:1024900000000000003b040000000000003b0400be
:1024a00000000000003b040000000000003b0400ae
:1024b00000000000003b040000000000003b04009e
:1024c00000000000003b040000000000003b04008e
:1024d00000000000003b040000000000003b04007e
:1024e00000000000003b040000000000003b04006e
:0c24f00000000000003b040000000000a1
:020000040000fa
:10260000ef2c21000eff24000e01880000000000c6
:102610000c000700e03a2400010020001d00070024
:10262000000020000000e000020032000000020074
:1026300000000000ee390200000000000040da0057
:102640000000fe0060c520000000e0000200320033
:10265000002020009001880000000600f03fb1003b
:102660000180b10006003500ee0309000000000003
:10267000403fb1000180b100fbff3d001000b00001
:10268000203fb0000200350000800900000000007b
:1026900000000600a1028800800078000000eb0026
:1026a0001a003700e280400054a0b4009101ba0043
:1026b000e280400054a0b4009102ba00e2804000e1
:1026c00054a0b4000002eb00472bde00f507b20077
:1026d000a6018800602ce10008003a000049eb00e8
:1026e0000201e800020039003420ec0002f0a000f2
:1026f0008301e900f9ff3e00040037006128e10092
:10270000010032000082eb00040007001101ba0052
:102710000200e000e3ff3a000000060004d0a3003e
:10272000e20f49001c003900810278003549ba00e7
:102730000201e800020039003420ec0002f0a000a1
:102740008301e9000f0032002549ba000201e800c8
:10275000020039003420ec0002f0a0008301e900ff
:10276000080032000400e0000600320015c9ba007b
:102770000201e800020039003420ec0002f0a00061
:102780008301e9008180e80054a0b4000300e00068
:10279000e2ff3a00000006009102ba0005597800f5
:1027a0008301e900f7ff3200c82ade0005597800ee
:1027b0008301e900f3ff32000400e000f1ff320082
:1027c00011d9ba00eeff37000a00fa008001780044
:1027d000e20f500027003e0040938000e10f5000c0
:1027e00008003200802320000000e00005003200d5
:1027f00004232000252320004623200080017800a8
:102800000400370004222000252220004622200058
:1028100083222000144090000004e00004003500f2
:102820008009eb00144090000074a0001042980052
:10283000154090000028a30003003a0015409000c6
:102840000024a000904298008001eb0006003700b1
:10285000154090000008a300fdff32003100fb008e
:10286000000b78008301e800828f5100f8ff3a00e6
:102870000800370030002000b0bf9f00c3bf9f009a
:10288000d1bf9f00e2bf9f006a80570000c0da00fe
:102890006fb99700020078000080fa00000006007f
:1028a0000001be001a0107000470a70003f0a10098
:1028b00003f8a30013003a006509b10010003200cc
:1028c000090035006928e1000200350001002800f8
:1028d0000000050000004000818048008502e900fa
:1028e000fcff3a0000000600f88f420005003500aa
:1028f0008100d1000080d3008502e800fcff3a008f
:10290000000006008000eb0000000500889fbe006c
:102910008a9fbe00010578000100e0000400350038
:1029200008003c000000e0002000320005003700f5
:1029300060001000e080180002003b0001f02c0055
:102940001a0037000004be006011b8006b092000b7
:102950000982cf00020039000882cf000441b00094
:10296000694252000e00320008003b008281710073
:10297000610164008904d1000884d3008b05e8005c
:102980000442e800f9ff3a0005003700080444005b
:1029900089844c008b05e9000442e900fbff3a0002
:1029a000f00007000af0a70001f0a0004f05be00ec
:1029b0004f04be000000060003f0a200889fbe0086
:1029c0008a9fbe008c1f78000c01070013013300a2
:1029d0006450e1004f0032006420e10052003200f8
:1029e00003826c0007003b000905d0000306d000fd
:1029f000820f54000c065d00020039000200320014
:102a000089017800030678008582550004003d00a6
:102a10000003fd008103fd008502ea008b85420072
:102a2000840f720002003b0060001000e08018007c
:102a30006011b8000005eb007a28e1000a003900b7
:102a400006007800c75ddd00f707b20087807500db
:102a50002d003700828171000a0178006105600055
:102a60008180d1000080d3008502e900f9ff3b009e
:102a7000060440008784480002003b006004140004
:102a8000e0841c000988a300070032008a817100dd
:102a900082817100610164008904d1000884d3003f
:102aa0008b05e800170037000978a30013003a00ef
:102ab0000b00e000130034008b05e900080444001b
:102ac00089844c000a4474000978a3000d003a0080
:102ad0000b00e000070034008b05e9000804440007
:102ae00089844c0001003a000b0020000978a30003
:102af000f7ff32000001eb00020037008281710015
:102b00000a017800970007000cf0a70001f0a00070
:102b1000cb0037006420e10002003a00838f6c0094
:102b2000cb0033000801be000200be00c400370025
:102b300014002000c9003700889fbe008a9fbe0095
:102b40008c1f7800ad000700b400330003866c00d2
:102b50006450e1002e0032006420e10033003200b6
:102b60006150e1002f0032006120e10031003200ad
:102b700085855500eb07b0000900200008042000ff
:102b8000050037000804440089844c000a00310025
:102b90000603430087834b000001530081815b00e3
:102ba000f8ff33000203be000800a0000804440040
:102bb00089844c00f6ff3900c639dd0083017300bb
:102bc00001003200130020008904d1000884d300e2
:102bd0000998a300050032000800a7000300a00028
:102be0008904d1000884d3008b05e8008904d10052
:102bf0000884d3000001eb000281d20059000700d5
:102c000001f0a1000cf0a70001f0a0008c0037003b
:102c10006420e1008e0032000801be000200be0008
:102c2000f7ff37006120e100890032006000b80042
:102c3000f3ff37000000200001f82700f0ff370005
:102c4000889fbe008a9fbe008c1f78006b00070023
:102c50007200330003866c006450e10024003200ef
:102c60006420e100270032006150e10022003200c0
:102c70006120e100210032008b854200eb07b100aa
:102c80000134b800003ab8000804420089844a00c0
:102c9000013ab8000030b8008880400009014a00bd
:102ca0000400330000004000818048000201490018
:102cb0008b05e900c909dd008301700001003200c5
:102cc00013002000c814de004814dd004709de00b0
:102cd0001200b200c808de0008847000210007005e
:102ce00001f0a1000cf0a70001f0a0005400370093
:102cf0006120e100560032000801be000200be0063
:102d0000f7ff37006150e100fcff3a005000370048
:102d1000c70ade00f107b200f50fb200080032006a
:102d2000e1cf4200020032000170a0002400050043
:102d3000810f700001003200040805004400050006
:102d4000810f700002003a00140005008502e900be
:102d50000000400081c04800fcff3b000170a00063
:102d60002400050081002000618055000b003d001b
:102d70000b00200061fe2f000100e1001d00340067
:102d800082817100610164008904d1000884d3004c
:102d90000000e800faff3a007100200061006400c2
:102da000030070000200600009003200610444006a
:102db000e0844c000988a500050032008b05e8007e
:102dc0006808e10002003a008904d1000884d300b9
:102dd000f20f20000258e10005003d00c75ddd0054
:102de000f907b2008980750008007800000006002d
:102df0000bf827008b007800000005000004be00df
:102e0000c3ff07000003be000405be000200be00b1
:102e1000bfff0700844f7500000006000200be00df
:102e20006450e100050036006420e1000200360035
:102e30000968a30001003a000800be000160a0007c
:102e40004f0678004f05be004f04be00000006008c
:102e5000f0ff2f00f1ff2700f9ff3700889fbe0029
:102e60008a9fbe00841f7800e4ff07004f007800af
:102e700011003300f0ff2f00838f6c0006003b0031
:102e8000040565000a00a7000800370009f0a60045
:102e90001000200008003700820f5400838f5c0070
:102ea000030039001000200001003e000000200057
:102eb00009f0a7000000ea004f05be004f04be0065
:102ec0000000e000000006002800fa00889fbe0015
:102ed0008a9fbe008c9fbe0003866b00170307000d
:102ee0000028a30064003a000128a30067003a000c
:102ef0000008a30062003a000108a30065003a0040
:102f00001e009000be08900081064000ed3fb10019
:102f1000f4805700ee019000111ab8008e0990005d
:102f2000311bb8009e099000311cb800511db8003b
:102f3000f485570046000700fe0190003a000700a4
:102f40008b85e8003e0007008e09900040000700d6
:102f5000ee019000340007008b85e8003800070080
:102f60008e099000400007009e0990001b18b800d1
:102f7000890440000a854800fe01900034000700e3
:102f80008b85e80038000700ee0190003000070054
:102f90008e0990001b18b800890440000a8548007b
:102fa0000a98a30008003a000402420085824a0001
:102fb00006034b0087834b0008044c0089844c00b7
:102fc0000a054d008d06e9008482720085027300b7
:102fd0004c3add008502720001003200150020002d
:102fe000443ade001400b2004538de00cb45dd0077
:102ff0000b007000c540de00cb4ddd008b80700003
:103000004549de00cb55dd000b017100c551de00e6
:103010000d037800e202070003f0a1000cf0a70006
:1030200003f0a000d90237001b18b8008502400049
:1030300006834800e0834b0060044c000700370023
:103040001b18b8000603400087834800faff3700ca
:103050001b18b8008703400008844800e0844c0037
:1030600060054d00000006001b18b8000804400071
:1030700089844800faff37000108a300c0023a0023
:103080005800be005801be00e3ff37000008a3004f
:10309000bb023a0009047800f9ff37008103780089
:1030a0001bff07000001be006000b8000478a30009
:1030b00013003a006220e10015003e000d003900c7
:1030c0008301d1000281d3008180d3008301d1002c
:1030d0000281d3008180d3008301d1000281d3001b
:1030e0008180d3000538b000c42add00f300b200af
:1030f0008381720007f0a70003f0a0000000060023
:10310000f3ff2700f2ff2f006110b900fbff37002b
:1031100003ff2700f7ff37008f1fd100cc02070005
:103120008f87e9000000e00000000600801feb0030
:10313000c70207008f87e9000000e00000000600da
:103140001400fa00889fbe008a9fbe008c9fbe00bc
:103150000005be000206be00680047000c90be00dd
:103160000a90be00e30207006400e1001a0032008a
:1031700016003e006100e1001a0032006e0490006b
:10318000fe0490000e0b90009e0b90006011b800a2
:103190009e0590000b38b100d5012000828171009e
:1031a000610164008703d1000683d3008984d300c2
:1031b0000884d3008502e900f8ff3a00e9fe070021
:1031c0000df0a70001f0a00070023700f1ff27000a
:1031d000f0ff2f006d02370001f8270000002000eb
:1031e000f7ff37006000b800f5ff3700e80207007e
:1031f0000509780000000600809feb00940207009c
:103200008f87e9000000e000000006002800fa00b7
:10321000889fbe008a9fbe008c9fbe000706780074
:10322000878669000c003b0003047800870478005f
:1032300008f0a10009f0a100840f5000858f58000c
:10324000860f5900890f5c00030033000cf0a200c8
:1032500001003a000cf0a100380207006400e10010
:103260005f003200780147006408e100610032002d
:103270006c014700748557003200be001201be0089
:103280003a04be001a05be001e039000be0a90005c
:103290008503530006003d000004fd008104fd008d
:1032a0000205fd008305fd008703ea0005037800a1
:1032b0000df8a3000400320060041400e0841c0038
:1032c00060051d00e0851d006022b8007d03200020
:1032d0000d38e1008006eb000b0039004433dd00bf
:1032e000f300b2008301730039003700848272005a
:1032f0000d027800e10664008b85d1000a85d300b9
:103300008984d3000884d3008703e900f7ff3b00da
:1033100008004000898048000a0149008b8149006b
:1033200004003b0060001000e080180060011900fc
:10333000e08119000358a300090032008d82720059
:1033400084827200610260008301d1000281d30097
:103350008180d3000080d3000603e8001b00370003
:103360000348a30017003a000600e00017003400ed
:103370000603e9000d00a30000004800818048001a
:1033800002014900838149000348a3000f003a006d
:103390000600e000090034000603e90000004000d8
:1033a00081804800020149008381490001003a0000
:1033b0000003eb000348a300f5ff32006022b800d1
:1033c000020037008482720061826600f401070007
:1033d00003f0a1000cf0a70003f0a000eb01370000
:1033e000640147006408e10002003a000df8a30000
:1033f000e3013a003200be001201be00e3013700d3
:103400001400fa00889fbe008a9fbe008c9fbe00f9
:103410000004be000205be00680047000a90be001e
:103420000890be00330207000070a7000bf0a10057
:103430000bf8a30020003a009e0990000e099000ae
:10344000fe0090006e0090009e0290003443200029
:1034500084825200cd0132000a003c00b4fc2f00ef
:103460000428e100140034008301d1000281d3005c
:103470008180d3000080d3008502e800faff3a0083
:10348000c2013700b40020000428e10007003c001e
:10349000000040008180480002014900838149000a
:1034a0008502e900faff3a00b8013700030028005e
:1034b00002002000010037006011b8006000b80071
:1034c000b20137002800fa00889fbe008a9fbe0024
:1034d0008c9fbe0003866b00980107006400e1002a
:1034e000440032006408e1004a0032006100e1005b
:1034f000460032006108e10049003200ec06470056
:103500006000b8003d02be003d03be00f4865700d7
:103510006011b8003d04be003d05be007d032000e3
:103520000b0037000000a0008d06e90013003200f8
:103530000402420085824a0006034b0087834b0049
:103540000000400081804800020149008381490059
:103550000802520089825a000a035b008b835b00d9
:10356000f0ff3b000802420089824a000a034b0038
:103570008b834b008d06e900edff3a0084827200d8
:1035800086827200f707b200878272000100320063
:10359000150020001e0490003e0b9000060354000e
:1035a000e63fb0000368a300070032000000a70058
:1035b0000500a0008301d1000281d3008180d300e7
:1035c0000080d3000603e8008301d1000281d3000c
:1035d0008180d3000080d3000002eb000482d2007f
:1035e0006f01070003f0a1000cf0a70003f0a0009a
:1035f00066013700640247006408e10060013200a0
:103600003400be003401be00f6ff37006108e1005f
:103610005b0132006011b8006000b800f1ff3700b4
:1036200003ff270002002000fbff3700889fbe0039
:10363000830478000300e0002c00350003003c0008
:103640000082700004027100260032003643200020
:10365000c50020008383cf000a0039000541b10076
:103660008283cf00070039000541b1008183cf007c
:10367000040039000541b1008083cf00010039000a
:103680000541b10085c353006022b800120032002a
:103690000a003b0084827200610260008301d10055
:1036a0000281d3008180d3000080d3000603e800ac
:1036b0008743e800f7ff3a000700370000004000aa
:1036c0008180480002014900838149000603e90026
:1036d0008743e900f9ff3a003101070009f0a7002c
:1036e00003f0a0004f04be000000060060001000c0
:1036f000e080180060011900e0811900d3ff3b0051
:10370000033e2c00f7ff370007f0a200bffe370092
:10371000881f7800000478005001be004000be0001
:103720000400400085804800060149008781490067
:10373000009cbe000294be000400e1000588e10088
:103740000690e1000798e1000200310068004400a3
:103750001008e8004f04780000000600f4874700d6
:10376000889fbe008a9fbe008c9fbe008e1f78007f
:103770000205be000004be00d4b79f00e5b79f005d
:10378000f6b79f0087bf9f000000eb00c0b79f0007
:10379000b0b79f00a0b79f0090b79f0080b79f0071
:1037a0000d042000bfb097004fb09700000140000b
:1037b0000000e0000f003d004f08de000000710037
:1037c000c0b79f009e00070001003d0012002000ce
:1037d000a100070001003d0012002000a600070024
:1037e000b1000700b60007000f004000c8ff070047
:1037f000220037004f08de0000067100ccb79f00a2
:103800008f00070001003d00120020009200070019
:1038100001003d001200200097000700a2000700f1
:103820000fb297009fb297002fb39700bfb39700d6
:10383000a90007000000520081805a0002015b00cd
:1038400083815b0080b79f0091b79f00a2b79f0064
:10385000b3b79f000007eb009f0007000020e100c6
:1038600001a8e10002b0e10003b8e100010031006d
:103870001e0020000e005600c0b79f004fb29700f8
:103880000400e000070035001000200001002000c7
:103890006011b80008047000898470000a05710086
:1038a0008b8571008d06e900beff3a000400e00040
:1038b00003003d00820007000f00400094ff070056
:1038c0004fa897000000e00004003a000fb49700f2
:1038d0009fb497002fb59700bfb5970094000700dd
:1038e0004f0778004f06be004f05be004f04be00d4
:1038f0004f01b10000000600881f7800180020006a
:10390000881f780095ff07008f87e9004f04780033
:1039100000000600801feb0090ff07008f87e90082
:1039200000000600889fbe008a9fbe008c1f7800a2
:103930006e00070007003d0073000700e00f5b000a
:10394000e08f5b0007003d00320007000006eb003f
:10395000040037003400070002003d002a00070081
:103960001c00200072000700e3ff07000203be00f6
:103970000002be000c00e00001003200220007003f
:103980000400be000601be004f0678004f05be00d1
:103990004f04be0000000600889fbe008a9fbe0044
:1039a0008c1f78005100070005003d0056000700fd
:1039b000e00f5b00e08f5b0006003d000400370075
:1039c0001900070003003d006000b8006011b80056
:1039d0001000070056000700ceff07000203be00dc
:1039e0000002be000c00e0000100320006000700eb
:1039f0000400be000601be004f0678004f05be0061
:103a00004f04be00000006006000b8006011b8005e
:103a10000000370004025000858258000603590058
:103a200087835900000006000006eb00e00f5200fb
:103a3000e08f5a00e00f5b00e08f5b0000000600a3
:103a40000180400090b79f000001eb008fb097000d
:103a50000100e000000006000200700090b79f0027
:103a60000180400080b79f000001eb00ffa8970095
:103a70000100e000000006000200700080b79f0017
:103a8000018040006faa9700cf20de000100700087
:103a9000f0af9f0004024200250007004f18de002f
:103aa0000002720000000600e4af9f00080444001a
:103ab00089844c000a054d008b854d0000000600ee
:103ac0003fb29700cfb297005fb39700efb3970074
:103ad00000fe2f00000006003fb09700cfb0970017
:103ae0005fb19700efb19700000006000205be002d
:103af0000004be00e00f5000e08f5800e00f5900b6
:103b0000e08f5900000006006000b8006011b800a6
:103b100008045000898458000a0559008b85590013
:103b20001c002000e00f5200e08f5a000000060049
:103b30000800be000a01be0000000600680447003d
:103b40000294be000094be00fc0447008694be00b0
:103b50008494be0009007800660007000800780021
:103b60006400070099007800814f70000b003b0053
:103b70000800be00930007004f00b10003003700ab
:103b8000f3ff2700f2ff2f006110b9004f06be00bf
:103b90004f05be004f04be000080fa000000060082
:103ba0001800200057002000080453000d003d00bd
:103bb0000600200097fc2f000740e1001e003400a3
:103bc00084827200610260008301d1000281d3000f
:103bd0008180d3000080d3000804e800f8ff3a0099
:103be00047002000610460000504740004046400c0
:103bf0000d00320061004000e08048006001490093
:103c0000e081490003b8a500070032000603e80080
:103c10006538e10004003a008301d1000281d3003d
:103c20008180d3000080d300f87f20000830e100bd
:103c300003003500080378006000b8006011b80088
:103c40004433dd00f300b20083017300000006007e
:103c5000889fbe008a9fbe008c9fbe000404be00e9
:103c60000605be00809fbe00829fbe006300070065
:103c7000040678000800be000a01be005f000700cd
:103c8000840678004f03be004f02be008d4f7600c1
:103c90007fb0970013003300f0ff2f008b8f6b0075
:103ca00006003b000d0666000c00a7000a00370066
:103cb00007f0a600100020000a003700880f52000d
:103cc000898f5a008a0f5b008b8f5b0003003900dd
:103cd0001000200001003e000000200007f0a700b7
:103ce0000000ea004f06be004f05be004f04be00b4
:103cf00000000600800078005002be005003be00a5
:103d00004439de00f700b200f37f200003016100b8
:103d1000090032000218e10016003a008501720025
:103d200083017300838173000008200015003a00ae
:103d300040002000130037008501720083017300ea
:103d40008381730005003a0004a8be0006a8be00e7
:103d5000100020000b0037000201e90004024200bd
:103d600085824a0006034b0087834b000748a30067
:103d7000f9ff32000740a00004a8be0006a8be005c
:103d800020002000800098009200980000000600ab
:103d90000003be00defb07006220e10002003200eb
:103da0000600be0005000500e507b100f107b200fe
:103db00004f023008480700007f0a70001f0a00049
:103dc00024000500e48240001078a30007003200c0
:103dd000640240001178a3003400be001401be004c
:103de000040032000330a700000006003500be00ca
:103df0001501be000330a0000000060005ff2700eb
:103e000005826100070032000428e1000100320051
:103e1000240005000600070001003a0044000500e8
:103e20000408050002000700f9ff3a00140005002d
:103e30006f8261008102700085027100850272004c
:103e4000000006000c00fa00889fbe000004780005
:103e5000cfb09700f0ff2700d0bf9f008004eb0099
:103e600099bf9f0088bf9f00a8bf9f00200c200023
:103e7000b0bf9f0078815700708057005f00070037
:103e80000fb89700094878000fb897000804500051
:103e9000080078004f04be000080fa000000060011
:103ea000889fbe008a1f7800804078000004e000f0
:103eb00021003d008040ea00d0c6b30080cf500012
:103ec000090034008104fb004206200011000900b3
:103ed0008204d80000017800010078004311dd0061
:103ee0002a0121001f0037000100fb0023012100ef
:103ef00039003700a2002000110009000200d8009c
:103f000000017800010078004311dd000301410049
:103f10004300dd00030040003002be002003be006d
:103f200042209000d2209000f22190006221900067
:103f3000e5fb07002e003700d0c6b30080cf50004d
:103f4000230034008104fb00420620001100090018
:103f50008204d80000017800010078004311dd00e0
:103f60002a0c21000a014100a800200011000900cc
:103f70000800d8004300dd000a0040004022900005
:103f8000d022900060239000f023900002889000df
:103f900092889000b289900022899000cafb0700a5
:103fa000801f780001027800110009008804d80001
:103fb0000102fd004f0078000402fb004322dd00f7
:103fc0000a0242005403be004402be00d8ff37007c
:103fd0000100fb00230c2100eacf5000c5ff3c008c
:103fe0004300dd00030040005001be004000be0061
:103ff0004f0578004f04be00000006008f03b0009c
:10400000889fbe008a9fbe008c9fbe008e1f7800d6
:10401000e0b79f00f1b79f0082bf9f000000eb0058
:10402000a0b79f00e50437000001eb0050c2b300c9
:1040300080cf5000090032000100fb00efb0970074
:10404000eb040700e10f4000dc043200afb0970042
:104050008100e800a1b79f00d8043700ffb19700a6
:1040600093407800d0c2b30080cf50000c003200e3
:1040700007003c006d40500080cf50000d00320022
:104080006b40400080cf500019003a000e0037000e
:1040900000c3b30080cf500015003a000f00370076
:1040a0000230a0007fb297000402e800f4b79f003e
:1040b000eaff37000200a000ffb297008502e80087
:1040c000f5b79f00e5ff37000210a0007fb697000c
:1040d0000c06e800fcb79f00e0ff37000220a000bc
:1040e0007fb097000000e800f0b79f00dbff3700cb
:1040f0000218a300010032000200a1000238a30050
:10410000010032000220a1000100fb0003fd2f008e
:1041100003004000e90f50000f003e008000eb005c
:10412000c1b79f004fb29700ea20b800ffb29700d6
:104130009500fb000100400003004000c0b79f0055
:104140005500fb00f5b79f0003004000e90f500049
:104150000d003e00f3ff37000006eb00ccb79f00d8
:10416000a0c2b30080cf500007003a000fb89700fc
:10417000c000780080bf9f00c1b79f00ffb19700cb
:104180008301e800f3b79f00e0c2b3007fb297005d
:10419000944f100021003a00820678000de0a00044
:1041a0008400e80064405000914f10000400320089
:1041b000f1b79f008002eb00b5b79f0010003700f9
:1041c0000fbe97004c0078008cbf9f00b0b79f00d7
:1041d000ffb097008180e800f1b79f00130037001f
:1041e000bfb19700ea18b80001004000020040008b
:1041f000b0b79f007fb297000402e800f4b79f00b9
:10420000ffb297009500fb0002fd2f0002804000e6
:10421000e90f5000f2ff36000400370082067800f4
:104220000dc0a0000006eb00bcb79f007fb0970058
:10423000b0407800f0b79f00c17f9f00c0c6b300b8
:1042400080cf50002700320014003c00684050002e
:1042500080cf50009d00320009003c006c405000af
:1042600080cf5000290032006b40400080cf5000ca
:10427000720032000104e000560432008e00370064
:1042800060c6b30080cf50001c0032006340400085
:1042900080cf500088003a008c00370030c7b30050
:1042a00080cf50001c00320007003c0064405000ea
:1042b00080cf5000130032000040e80080cf500053
:1042c0007d003a001100370050c7b30080cf500086
:1042d0007d0032006340400080cf500076003a00fd
:1042e0000b003700000028000d48a30001003a0031
:1042f0000001200080867600ccff37000da0a000d2
:10430000720037000d60a000700037000d50a00053
:104310000d70a0006d0037008fb897004100780045
:1043200081bf9f00000478000000e00001003a0017
:10433000282121008004eb00010037008104e800ff
:1043400089007800088044001004e000fbff3a0078
:104350003fb197000200e00003003200890f5100d6
:1043600001003100820478000007eb00cfb1970014
:10437000898f510001003600098751004368de0033
:10438000e106600019003a000d06780009003700c8
:10439000efb097000002200015040700e10f400075
:1043a000030032002fb297000402e800a4b79f0078
:1043b0000c06e8008e0f5600f5ff3a000087eb0070
:1043c0000a003700880078003100fb000104780003
:1043d000efb0970006040700e10f40000300320031
:1043e000afb297008502e800a5b79f000900e90079
:1043f00080047800e10f4000f2ff3a000006eb0075
:104400000d00e0000a003a00ec033700efb097001f
:1044100000022000f6030700e10f40000300320015
:104420002fb097000000e800a0b79f000c06e8003e
:104430008e0f5600f5ff3a00e00337008fb8970063
:104440004100780081bf9f00cf80de00010178002d
:10445000820178000205be000004be000203be0017
:104460000002be004822de00482edd000402760075
:10447000c47f9f000d48a3000a0032000404e0003e
:1044800008003200e14f420006003200d1fb2f004d
:104490000180470004487800184098002900200057
:1044a00002003700d07f9f0019002000d2fb2f00b0
:1044b00002844700a6ff3700c3fb2f000384470098
:1044c00019002000a2ff37000d0cb300007020007f
:1044d00000826600270232000dc8a30002003200ed
:1044e00064002000b4b79f000d48a300050032000f
:1044f0000fba97004401be004400be0084bf9f0075
:10450000040037008fba97004500be0085bf9f00aa
:10451000e2fa0700e0af9f00f1af9f0082b79f0073
:1045200093b79f006022b8006033b8006fa897006f
:10453000ffa897000fb197009fb19700f6fa070008
:104540000000e0000a003d006fa89700ffa8970058
:104550000fb197009fb1970003f0a200e0af9f005a
:10456000f1af9f0082b79f0093b79f003d00b3005b
:104570000000eb0080a79f006022b8006033b80005
:104580006fa89700ffa897000fb197009fb1970001
:10459000e6fa07000000e000340032006fa8970040
:1045a000ffa897000fb197009fb19700e4fa0700aa
:1045b00003fc2f00038147000cfb07000fa09700ae
:1045c0000000e900e300b800a2002000110009008b
:1045d0000200d8008000fd0081a79f000100e000dc
:1045e00002003d000100e90080a79f000fa4970092
:1045f0000840ea002afe07006faa9700ffaa97006a
:104600000fb397009fb397002ffa0700a0af9f004a
:10461000b1af9f00c2af9f00d3af9f006022b80030
:104620000600200007ff2300bbfa07000000e0009f
:1046300002003d000800e9000b0037006022b800ce
:1046400006002000470224002fa89700bfa897006b
:104650004fa99700dfa99700e7fa07000000e000e4
:10466000020035000800e80080a79f003fb29700d5
:10467000f80f520057003c00d0c6b300804f5200e4
:10468000290036000485fb004206200011000900c5
:104690000285d80000017800010478004311dd0094
:1046a0002b0121000b0141006022b8000600200010
:1046b00007fe23000288900092889000b289900043
:1046c0002289900000fa0700a9002000809fbe0008
:1046d000110009000984d800000478004f00be00d2
:1046e0004344dd000b04440048229000d82290008f
:1046f00068239000f8239000f3f90700801f7800ea
:1047000001027800110009000985d8000102fd00ae
:104710004f0078004322dd000b0242005403be002c
:104720004402be001f0037000480fb002901210065
:10473000ea4f520014003600a200200011000900c8
:104740000280d80000017800010478004311dd00e8
:10475000090141006022b8000600200007fe230086
:1047600042209000d2209000f2219000622190001f
:10477000d5f907004344dd00090444003802be00b7
:104780002803be00070037004300dd000900400099
:104790006022b8000600200007fe23005001be0082
:1047a0004000be00c8f907000002be000203be00c0
:1047b0006fa89700ffa897000fb197009fb19700cf
:1047c00092fa0700e0af9f00f1af9f0082b79f0011
:1047d00093b79f000fa49700e90f540015003c0009
:1047e0006022b8006033b8006fa89700ffa8970058
:1047f0000fb197009fb197004cfa07000000e0004e
:10480000320032006fa89700ffa897000fb1970001
:104810009fb19700fafa0700e00f5000e08f5800b0
:10482000e00f5900e08f590028003a00e10f5400d2
:10483000260034000400200005002e00b6e022000f
:10484000170124002fa89700bfa897004fa9970031
:10485000dfa9970030fa07000000e00002003d00e9
:1048600073005400010037007200540080a79f00bd
:104870000fc097008afd0700a0af9f00b1af9f0057
:10488000c2af9f00d3af9f000002be000203be0074
:104890006fa89700ffa897000fb197009fb19700ee
:1048a00008fb0700d6fa07000205be000004be00a0
:1048b0006000b8006011b800a0a79f00b1a79f00da
:1048c000c2a79f00d3a79f002e0037006fa89700b4
:1048d000ffa897000fb197009fb19700c8fa070093
:1048e0000205be000004be00e00f5000e08f58003b
:1048f000e00f5900e08f5900020035004bfb070024
:104900001300370010002000010020006011b800e3
:1049100008006000898060000a0161008b816100ed
:104920008b03d1000a83d3008982d3000882d3008d
:1049300000007200818072000201730083817300a5
:104940003afb07000002be000203be002ffa070078
:104950000002be000203be006fa89700ffa89700e8
:104960000fb197009fb1970067fb0700a0a79f00ba
:10497000b1a79f00c2a79f00d3a79f000000eb0034
:1049800080a79f0014c0b300251721000b0037003b
:104990000400fb004300dd00050040005001be00a4
:1049a0004000be000040e10001c8e10002d0e1008b
:1049b00003d8e100030039000442e800f44f52003c
:1049c000f3ff3a00c47f9f000400fb00bfb09700d4
:1049d000008040008fa09700010040004fb1970079
:1049e00000075100bfb197000300e0000100320052
:1049f0000e07e90063806600010032000e07e9003f
:104a00000d28a30026003200e18066000d18a300e7
:104a10000c003200d00220000100e00001003a004a
:104a20000080e900efb0970071020700e10f40003d
:104a3000180032002fb297000402e800a4b79f00cc
:104a4000140037000100e00012003200efb09700c0
:104a50000002200066020700e10f40000d00320056
:104a6000afb297008502e800a5b79f0009003700a4
:104a7000efb09700000320005d020700e10f400047
:104a8000030032002fb697000c06e800acb79f0079
:104a90000e07e9000e00e000f5ff3c003d00370086
:104aa0000d38a3000a0032000b003700efb097006a
:104ab000000220004e020700e10f40000300320018
:104ac0002fb097000000e800a0b79f000e07e90094
:104ad0000e00e000f5ff3c00e18066000d18a30029
:104ae0000c003200d00220000100e00001003a007a
:104af0000080e900efb097003d020700e10f4000a1
:104b000024003200afb097008100e800a1b79f00f9
:104b1000200037000100e0001e003200efb09700d7
:104b20000002200032020700e10f400019003200ad
:104b30002fb197000201e800a2b79f0015003700cf
:104b40000000fb004300dd002117210001004000b0
:104b50003002be002003be000800be000a01be00f5
:104b600065fb0700a4002000050020006033b800aa
:104b700068fb07000003b000efb097001c020700bd
:104b8000e10f400003003200afb197008301e8005d
:104b9000a3b79f004f7a97000440e900c07f9f00b1
:104ba000e14f4000e6ff3a000b003700efb09700fe
:104bb000000320000e020700e10f40000300320056
:104bc000afb297008502e800a5b79f000fa097003d
:104bd0000000e90080a79f000fa097000000e00000
:104be000f2ff3c003fb6970020c1b300f20f560021
:104bf00001003c006fe09700c07f9f00cf789700d6
:104c00000100fb003fb1970000005100e0a79f00aa
:104c10000104e00008003200efb09700e00220003d
:104c2000f3010700e10f400003003200afb197002d
:104c30008301e800a3b79f004f78970098fc070016
:104c40000002be000203be002fa09700bfa0970085
:104c50004fa19700dfa197009bf80700e8f9070034
:104c60001e0037000000fb004300dd002c17210070
:104c70000c0040003002be002003be000800be0051
:104c80000a01be001cfb0700a40020000500200054
:104c90006033b8001ffb07000003b000efb09700bf
:104ca000d3010700e10f4000030032002fb297004c
:104cb0000402e800a4b79f00cf7a97000500fb002c
:104cc0004300dd000c0040003002be002003be00a7
:104cd0000800be000a01be000efb07000205be0070
:104ce0000004be004f7e97000c40e900c07f9f008b
:104cf000e14f4000dbff3a000006eb0009003700ff
:104d0000efb0970000032000b9010700e10f400059
:104d1000030032002fb097000000e800a0b79f000a
:104d20000c06e800efa09700810f5600f4ff3a0050
:104d30000d38a300a10132000e00e0009f013400f5
:104d40000006eb00efb0970000022000a80107006a
:104d5000e10f4000030032002fb197000201e8008c
:104d6000a2b79f000c06e8008e0f56009301320098
:104d7000f4ff37000d007800000cb20028003a0064
:104d80000d00e00005003d008fb997004305be000f
:104d90004304be0083bf9f00140037000d48a300ea
:104da0000b0032000fba97004400be0084bf9f0082
:104db0004f89de00cf91de000002be0002037800c2
:104dc000820378000605be000404be000700370019
:104dd0008fba97004500780085bf9f0000047800d7
:104de000cfc4de00090578008a057800e00f540082
:104df000e08f5c00e00f5d00e08f5d0020003d0073
:104e00003d00b3006000b8006011b8000804500015
:104e1000898458000a0559008b855900180037000d
:104e20000d00e00005003d000fbe97004c05be00e0
:104e30004c04be008cbf9f00110037000d48a3003a
:104e4000080032008fba97004500be0085bf9f0062
:104e500004017800840178000205be000004be0051
:104e6000070037000fbe97004c0078008cbf9f00f2
:104e700000047800090020000a0020000b00200038
:104e80003fb097000000e00007003a00e00f540038
:104e9000e08f5c00e00f5d00e08f5d0002003a00f3
:104ea00011002000b1b79f000d0778000e0cb20072
:104eb00000042000800f57002f00320003003c0048
:104ec0000e00e000070032003f003700000820001d
:104ed000800f570014003200000c2000800f570094
:104ee00039003a0014c0b300251721000b00370029
:104ef0000400fb004300dd00050040005001be003f
:104f00004000be000040e10001c8e10002d0e10025
:104f100003d8e1002b0039000442e800f44f5200ae
:104f2000f3ff3a00270037000001200001002000b5
:104f30006011b80014c0b3000040e10001c8e100f6
:104f400002d0e10003d8e1001e0039004500200036
:104f50000000d0008180d2000281d2008381d20083
:104f60008502e900faff3a000442e800f04f5200df
:104f7000f1ff3a00130037008000200001002000fc
:104f80006011b80014c0b3000040e10001c8e100a6
:104f900002d0e10003d8e1000a0039003c00200003
:104fa0000000d0008180d2000281d2008381d20033
:104fb0000c06e900faff3a000442e800f54f5200ff
:104fc000f1ff3a00c47f9f00cf7897000100fb00fb
:104fd0003fb19700820f500002003d00c27f9f004a
:104fe00004003700bfb19700808f510001003d00e1
:104ff000b0b79f004fb297000400e00004003200f9
:1050000063806600020032000402e900c4b79f001a
:105010000de8a3000b003200cfb297003fb6970017
:105020008c8f520003003c000000eb00c0b79f00d3
:1050300004003700cfb097003fb197008280500046
:10504000c1b79f00cf7997000300fb000002eb007f
:1050500094a79f00cfb29700808f520002003400c7
:105060000080520090a79f000d28a3003600320058
:10507000e18066000d18a3000c003200d002200071
:105080000100e00001003a000080e900efb0970065
:10509000d7000700e10f40000e0032002fb6970046
:1050a0000c06e800acb79f000a0037000100e000e2
:1050b00008003200efb0970000022000cc0007008b
:1050c000e10f4000030032002fb097000000e8001d
:1050d000a0b79f009fa097000100e0000f003200e2
:1050e0000006eb00efb0970000032000c0000700af
:1050f000e10f4000030032002fb197000201e800e9
:10510000a2b79f000c06e8009fa19700830f5600ee
:10511000f4ff3a000002eb0094a79f00bfb2970093
:105120004328dd00a11621000100400090af9f0040
:105130004228dd006400500080af9f00e32eb800dd
:10514000fca79f00820037001fa097000000e0002e
:1051500011003200688066000f003a0000067800f7
:10516000efb0970000022000a1000700e10f40000f
:1051700003003200afb097008100e800a1b79f00a4
:105180000c06e8001fa19700820f5600f4ff3a00ba
:105190008001eb0093a79f00e18066000d18a3003b
:1051a0000c003200d00220000100e00001003a00b3
:1051b0000080e900efb097008d000700e10f40008c
:1051c000d6ff32002fb297000402e800a4b79f0078
:1051d000d2ff37000100e000d0ff3200efb09700af
:1051e0000002200082000700e10f4000cbff3200e8
:1051f000afb297008502e800a5b79f00c7ff370050
:1052000000042000800f57003100320003003c00f2
:105210000e00e000070032003e00370000082000ca
:10522000800f570011003200000c2000800f570043
:1052300038003a001fa897003002be002003be00cd
:105240000800be000a01be00abf90700a400200060
:10525000050020006033b800aef9070004c3b300b6
:1052600004424000c47f9f002a003700952121009e
:10527000d5b79f000d58a30002003a00a0222100dc
:10528000d0b79f0014002000050020006033b80054
:105290008fa897008100e900050033000402d000c8
:1052a0008582d2000683d2008783d200f9ff3700bf
:1052b0000800be000a01be008ff907006f00600001
:1052c0005fb19700000041001040780010003700e7
:1052d00014002000050020006033b8008c01780025
:1052e0008301e900050033000402d0008582d2006a
:1052f0000683d2008783d200f9ff37000800be0082
:105300000a01be007cf90700674060000043b0005e
:10531000c07f9f004f7a97000400fb00efb097001a
:1053200033000700e10f400003003200afb29700e6
:105330008502e800a5b79f001fa8970068005000ed
:1053400090af9f008fa89700e480500081af9f002e
:1053500063065600d0ff2f003fb197008010b800c1
:105360007fa297000000420063005000800f5600ab
:10537000a3ff3a000d38a300100032009fa297004f
:105380000500e0000d0034000006eb00efb09700d0
:105390000002200016000700e10f40000300320069
:1053a0002fb097000000e800a0b79f000c06e800af
:1053b0009fa09700810f5600f4ff3a007fb197003d
:1053c000b2407800f2b79f00c17f9f000104e00067
:1053d00015fb3a002fb097004f0778004f06be002c
:1053e0004f05be004f04be008f03b1000000060051
:1053f000889fbe000001780001047800b100900091
:105400000118a3003d0032000198a30003003a00f8
:10541000180090000000e00038003a000190a00061
:105420003104980082047800f90fb200180090004f
:105430000000e00002003a0028009000000c780014
:10544000ea8f540006003a00380090000078a3006c
:1054500003003a0088007800d0002000e4ff070035
:105460009800900058009000808f50000b00320090
:105470000100e8001004980018007800095878002e
:10548000000c780011c0b3006026210001487800ac
:10549000ea8f5400060032001900370088007800b7
:1054a00009407800190007008004780014003700d4
:1054b000380090000088a30011003200180190000d
:1054c000a800900048009000bff4070098009000ea
:1054d000810f500004003200380090000003b30038
:1054e000300498008084eb000000eb00100498006a
:1054f00028009000000c7800010037008084eb0049
:10550000090078004f04be00000006000200fa0007
:10551000889fbe00a0ff9f0001047800b1009000aa
:10552000810478000904b200020032000000fb0090
:10553000360037000118a30005003a000103b3004c
:1055400031049800190498000080eb002f00370008
:10555000580090000000e00006003a00480090006b
:1055600012002000e680570097f407001904980005
:1055700024003700280090000000e00008003a00f6
:105580002026210020049800000c78002000200034
:1055900050049800100498000130a00031049800d5
:1055a00018019000a80090004800900086f40700c1
:1055b00028009000000c78000080eb001004980098
:1055c00018007800aff8970001587800000c7800b8
:1055d0002ff89700ea4f50000a003a003800900078
:1055e0000088a3000700320018019000a800900076
:1055f0004800900074f4070019049800a800900077
:10560000010c7800aff897000100fb004f04be00ca
:085610000080fa000000060012
:020000040000fa
:020000040002f8
:04afe000cfff00009f
:020000040000fa
:020000040002f8
:04afe400efff00007b
:020000040000fa
:020000040002f8
:04afe80079ff0000ed
:020000040000fa
:020000040002f8
:04afec005bff000007
:020000040000fa
:020000040002f8
:04aff00078ff0000e6
:020000040000fa
:020000040002f8
:04aff400cfff00008b
:020000040000fa
:1000080002100000061000000a1000000e10000088
:1000180012100000161000001a1000001e10000038
:1000280022100000261000002a1000002e100000e8
:1000380032100000361000003a1000003e10000098
:1000480042100000461000004a1000004e10000048
:1000580052100000561000005a1000005e100000f8
:1000680062100000661000006a1000006e100000a8
:1000780072100000761000007a1000007e10000058
:1000880082100000861000008a1000008e10000008
:1000980092100000961000009a1000009e100000b8
:1000a800a2100000a6100000aa100000ae10000068
:1000b800b2100000b6100000ba100000be10000018
:1000c800c2100000c6100000ca100000ce100000c8
:1000d800d2100000d6100000da100000de10000078
:1000e800e2100000e6100000ea100000ee10000028
:1000f800f2100000f6100000fa100000fe100000d8
:1001080002110000061100000a1100000e11000083
:1001180012110000161100001a1100001e11000033
:1001280022110000261100002a1100002e110000e3
:1001380032110000361100003a1100003e11000093
:1001480042110000461100004a1100004e11000043
:1001580052110000561100005a1100005e110000f3
:1001680062110000661100006a1100006e110000a3
:1001780072110000761100007a1100007e11000053
:1001880082110000861100008a1100008e11000003
:1001980092110000961100009a1100009e110000b3
:1001a800a2110000a6110000aa110000ae11000063
:1001b800b2110000b6110000ba110000be11000013
:1001c800c2110000c6110000ca110000ce110000c3
:1001d800d2110000d6110000da110000de11000073
:1001e800e2110000e6110000ea110000ee11000023
:1001f800f2110000f6110000fa110000fe110000d3
:1002080002120000061200000a1200000e1200007e
:1002180012120000161200001a1200001e1200002e
:1002280022120000261200002a1200002e120000de
:1002380032120000361200003a1200003e1200008e
:1002480042120000461200004a1200004e1200003e
:1002580052120000561200005a1200005e120000ee
:1002680062120000661200006a1200006e1200009e
:0c02780072120000761200007a120000e2
:020000040000fa
:10561800556e0000686100006e6400006c65000053
:1056280064200000696e000074650000727200005a
:1056380075700000742c00002000000064730000e6
:10564800504900004333000033450000503100004a
:1056580032380000475000003530000032000000aa
:10566800756e00006b6e00006f7700006e00000022
:1056780041330000004400006576000069630000c3
:105688006520000049440000203d00002000000083
:1056980020280000002900002c200000726500006e
:1056a80076690000736900006f6e0000200000003a
:1056b800290a0000000a00000a2a00002a2a00001d
:1056c8002a2a00002a2a00002a2a00002a2a000082
:1056d8002a2a00002a2a00002a2a00002a2a000072
:1056e8002a2a00002a2a00002a2a00002a2a000062
:1056f8002a2a00002a2a00002a2a00002a2a000052
:105708002a2a00002a2a00002a2a00002a2a000041
:105718002a2a00002a2a00002a2a00002a2a000031
:105728002a2a00002a0a00002a2000005741000007
:10573800524e0000494e0000472000002d20000076
:10574800746800006973000020700000726f000028
:1057580067720000616d000020770000617300002f
:10576800206300006f6d0000706900006c65000028
:1057780064200000666f000072200000746800005a
:1057880065200000777200006f6e0000672000003f
:10579800202a00000a2a000020630000686900002f
:1057a800702e00002054000068690000732000007b
:1057b800707200006f670000726100006d200000c9
:1057c8006d61000079200000707200006f640000b5
:1057d8007563000065200000756e000065780000a4
:1057e80070650000637400006564000020620000ba
:1057f80065680000766900006f72000021200000d3
:105808002a0a00002a20000045640000697400008c
:1058180020740000686500002068000065610000d1
:105828006465000072200000666900006c65000075
:1058380073200000746f000020700000726f000079
:1058480070650000726c000079200000646500003b
:10585800666900006e650000207400006869000039
:10586800732000006368000069700000202a0000af
:105878000a2a0000206100006e6400002074000005
:105888006f200000696e00007375000072650000eb
:10589800206300006f7200007265000063740000ee
:1058a800206f0000706500007261000074690000dc
:1058b8006f6e00002e200000202000002020000035
:1058c80020200000202000002020000020200000d0
:1058d8002020000020200000202000002a0a0000cc
:1058e8002a200000202000002020000020200000a6
:1058f80020200000202000002020000020200000a0
:10590800202000002020000020200000202000008f
:10591800202000002020000020200000202000007f
:10592800202000002020000020200000202000006f
:10593800202000002020000020200000202000005f
:105948002020000020200000202a00000a2a000051
:10595800204e00004f540000453a00002049000046
:10596800662000007468000069730000207700005a
:1059780061730000206300006f6d00007069000013
:105988006c65000064200000666f00007220000053
:105998007468000065200000636f000072720000e8
:1059a80065630000742000006368000069700000ef
:1059b8002c200000202000002a0a00002a200000d5
:1059c800616e0000642000006f6e00006c790000ba
:1059d800206f0000636300007572000073200000f0
:1059e80061740000207000006f770000657200008d
:1059f8002d6f00006e200000286e00006f740000fc
:105a08002064000075720000696e000067200000c5
:105a1800612000004d4300004c520000202000008f
:105a280020200000202a00000a2a0000207200001e
:105a38006573000065740000292c000020760000c2
:105a48006572000069660000792000007468000033
:105a5800617400002041000056440000442000000a
:105a6800616e00006420000041560000535300009e
:105a78002061000072650000206300006f6e000066
:105a88006e65000063740000656400002e2000004d
:105a9800202000002a0a00002a2000004f6e000083
:105aa8002074000068650000205000004943000091
:105ab8003234000048330000324700005032000002
:105ac800303200002c2000006e6f000074200000af
:105ad800636f00006e6e000065630000746900006b
:105ae8006e6700002041000056440000442000007a
:105af800202000002020000020200000202000009e
:105b0800202a00000a2a000020700000726f00009e
:105b1800647500006365000073200000746800006d
:105b280069730000206d0000657300007361000058
:105b380067650000206f00006e6c0000792000008f
:105b480061740000207000006f770000657200002b
:105b58002d750000702e000020200000202000007d
:105b6800202000002020000020200000202000002d
:105b78002a0a00002a2a00002a2a00002a2a0000ed
:105b88002a2a00002a2a00002a2a00002a2a0000bd
:105b98002a2a00002a2a00002a2a00002a2a0000ad
:105ba8002a2a00002a2a00002a2a00002a2a00009d
:105bb8002a2a00002a2a00002a2a00002a2a00008d
:105bc8002a2a00002a2a00002a2a00002a2a00007d
:105bd8002a2a00002a2a00002a2a00002a2a00006d
:105be8000a000000466100007374000020520000a3
:105bf800432000004f730000630a000000460000c5
:105c0800617300007420000052430000204f000020
:105c180073630000207700006974000068200000aa
:105c2800504c00004c0a000000500000726900004f
:105c38006d61000072790000204f0000736300005e
:105c480020280000585400002c2000004853000071
:105c58002c20000045430000290a000000500000e5
:105c6800726900006d61000072790000204f000029
:105c78007363000020280000585400002c20000006
:105c8800485300002c200000454300002920000054
:105c98007769000074680000205000004c4c000038
:105ca8000a00000053650000636f00006e64000086
:105cb80061720000792000004f730000630a000041
:105cc800004c00006f770000205000006f77000044
:105cd8006572000020520000432000004f7300004e
:105ce800630a000000460000617300007420000091
:105cf80052430000204f0000736300002f31000062
:105d0800360a00000046000061730000742000009d
:105d180052430000204f0000736300002f4e000024
:105d28000a000000556e00006b6e00006f770000df
:105d38006e2000006f730000636900006c6c000047
:105d4800617400006f720000207400007970000018
:105d5800652e0000000a0000446500007669000016
:105d68006365000020680000617300002062000085
:105d7800656500006e200000696e00002073000059
:105d88006c65000065700000206d00006f64000005
:105d9800650a0000000a00004465000076690000fa
:105da8006365000020680000617300002062000045
:105db800656500006e200000696e00002069000023
:105dc800646c0000652000006d6f000064650000d1
:105dd8000a0000000a5200006573000065740000a4
:105de8002063000061750000736500003a20000020
:105df800005000006f770000657200002d6f0000f2
:105e08006e2e00000a000000536f00006674000048
:105e18007761000072650000205200006573000081
:105e2800657400002e0a000000570000617400002d
:105e380063680000646f0000672000005469000078
:105e48006d6500006f750000743a000020000000c6
:105e58000a0000004d4300004c5200002061000081
:105e68007373000065720000746900006f6e0000b3
:105e78002e0a000000420000726f0000776e0000da
:105e88002d6f0000757400002e0a000000540000f9
:105e98007261000070200000436f00006e66000011
:105ea8006c690000637400002e0a000000490000bd
:105eb8006c6c000065670000616c00002043000006
:105ec8006f6e000064690000746900006f6e000066
:105ed8002e0a0000004300006f6e00006669000093
:105ee8006775000072610000746900006f6e000041
:105ef800204d0000697300006d61000074630000ac
:105f0800682e00000a000000556e00006b6e00004d
:105f18006f7700006e200000726500007365000056
:105f2800742e00000a00000045720000726f000025
:105f3800722000007472000061700000706500003b
:105f4800643a00002000000050720000696f0000f1
:105f580072690000747900003a200000002c0000eb
:105f68002056000065630000746f00007220000076
:105f78006e7500006d620000657200003a20000036
:105f8800000a00000a0000000a0a0000596f000019
:105f980075720000206300006c6f0000636b0000e6
:105fa80020630000686f000069630000652000003e
:105fb80066610000696c00006564000020740000e0
:105fc8006f200000696e00006974000069610000bc
:105fd8006c6900007a6500002c20000068610000f0
:105fe8007665000020730000776900007463000084
:105ff8006865000064200000746f000020690000dc
:106008006e740000657200006e6100006c20000074
:106018004661000073740000205200004320000015
:106028006f730000636900006c6c0000617400000d
:106038006f720000202b0000504c00004c2e000016
:106048000a43000068650000636b000020790000c7
:106058006f75000072200000736500007474000002
:10606800696e000067200000666f00007220000063
:106078007468000065200000274300004c4f0000b2
:10608800434b00005f4300004f4e000046490000ac
:1060980047270000206d000061630000726f000058
:1060a8002e0a000057610000746300006820000099
:1060b8007468000065200000636f00006d700000c8
:1060c800696c000065720000206f000075740000a4
:1060d8007075000074200000776900006e6400008d
:1060e8006f77000020770000686500006e200000d0
:1060f8007069000063320000345f0000636c0000c8
:106108006f6300006b66000072650000712e00006e
:106118006320000069730000206300006f6d0000b9
:10612800706900006c650000642c000020610000ac
:1061380020770000617200006e6900006e67000041
:10614800206d000065730000736100006765000042
:106158000a770000696c00006c200000746500007c
:106168006c6c0000207900006f750000207400003e
:106178006865000020730000656c0000656300001e
:106188007465000064200000766100006c750000f2
:1061980065200000666f00007220000027430000a1
:1061a8004c4f0000434b00005f4300004f4e00007f
:1061b80046490000472700002e0a0000496e0000eb
:1061c800204d0000504c0000414200002c200000ef
:1061d8007573000065200000507200006f6a0000af
:1061e80065630000742d00003e42000075690000e0
:1061f8006c640000204f000070740000696f00009c
:106208006e7300002d3e0000507200006f6a00009f
:1062180065630000742c00002074000068650000ad
:106228006e200000636c0000696300006b200000b2
:106238006f6e0000204d0000504c000041420000ed
:106248002043000033300000207400006162000029
:10625800207400006f2000007365000065200000b6
:1062680069660000200a00007468000065200000cc
:106278006d610000637200006f2000006973000008
:106288002064000065660000696e00006564000017
:106298002074000068650000726500002e20000070
:1062a800496600002074000068650000206d000049
:1062b80061630000726f0000206900007320000015
:1062c800736500006c65000063740000696e00006f
:1062d80067200000616e00002065000078740000ef
:1062e800657200006e6100006c200000637200009f
:1062f80079730000746100006c20000028740000ad
:106308006865000020700000726900006d6100007f
:1063180072790000206f000073630000696c000050
:106328006c610000746f0000722900002c0a0000e4
:10633800616e000064200000796f00007572000033
:10634800206200006f610000726400002064000099
:106358006f650000732000006e6f0000742000005d
:10636800686100007665000020610000206300007d
:106378007279000073740000616c00002c2000002a
:10638800796f000075200000776900006c6c0000d0
:106398002067000065740000207400006869000030
:1063a800732000006d6500007373000061670000d2
:1063b800652e00000a440000656c0000657400004a
:1063c8006520000074680000652000006d61000011
:1063d800637200006f2000006465000066690000b9
:1063e8006e690000746900006f6e0000206600008e
:1063f800726f00006d2000007468000065200000c6
:106408004d5000004c410000422000007072000016
:106418006f6a000065630000742000006966000070
:10642800207900006f75000020770000616e000081
:1064380074200000746f0000207500007365000070
:106448002074000068650000206400006566000094
:10645800617500006c740000200a0000636c000085
:106468006f6300006b200000636800006f69000024
:1064780063650000206f000066200000465200009f
:10648800432000002b200000504c00004c2e000040
:106498000a5900006f750000206d00007573000038
:1064a8007420000072650000636f00006d700000ca
:1064b800696c000065200000616e00006420000027
:1064c80072650000707200006f6700007261000062
:1064d8006d200000776900007468000020610000ea
:1064e8006e20000061700000707200006f70000084
:1064f800726900006174000065200000434c0000d0
:106508004f4300004b5f0000434f00004e46000021
:106518004947000020630000686f000069630000bd
:1065280065200000666f000072200000746800009b
:1065380069730000206300006f640000652000009c
:10654800746f000020650000786500006375000026
:10655800746500002e0a00000045000072720000f9
:106568006f720000206900006e2000002e2e0000cf
:106578005c6c0000696200005c6300006f6d0000e5
:106588006d6f00006e5c00007069000063320000ef
:10659800345f0000636c00006f6300006b660000ee
:1065a80072650000712e0000632000006c69000015
:1065b8006e65000020310000393400003a200000e8
:1065c8004153000053450000525400002875000054
:1065d800385f0000736f000075720000636500008b
:1065e800203c0000203800002920000066610000df
:1065f800696c0000656400002e0a000000000000bd
:106608005541000052540000312000007061000024
:106618007269000074790000206500007272000041
:106628006f7200000a00000055410000525400003b
:106638003120000066720000616d0000696e000084
:106648006720000065720000726f0000720a000087
:10665800005500004152000054310000206f000036
:106668007665000072720000756e000020650000fb
:10667800727200006f7200000a000000457200008c
:10668800726f000072200000696e0000202e00006a
:106698002e5c00006c690000625c0000636f000003
:1066a8006d6d00006f6e00005c7000006963000093
:1066b800323400005f75000061720000742e000023
:1066c800632000006c6900006e6500002033000044
:1066d800343100003a2000004153000053450000c7
:1066e80052540000286600005f62000072670000d4
:1066f800203c00002036000035350000333500000e
:106708002e3500002920000066610000696c000039
:10671800656400002e0a0000004500007272000047
:106728006f720000206900006e2000002e2e00000d
:106738005c6c0000696200005c6300006f6d000023
:106748006d6f00006e5c000070690000633200002d
:10675800345f000075610000727400002e63000051
:10676800206c0000696e00006520000033380000ce
:10677800383a000020410000535300004552000001
:106788005428000075330000325f00006261000089
:10679800756400005261000074650000203e00002e
:1067a8003d20000031300000303000004c2900004e
:1067b80020660000616900006c650000642e00001e
:1067c8000a00000055410000525400003220000029
:1067d8007061000072690000747900002065000093
:1067e800727200006f7200000a000000554100003c
:1067f800525400003220000066720000616d0000f3
:10680800696e00006720000065720000726f00006a
:10681800720a000000550000415200005432000086
:10682800206f00007665000072720000756e00002f
:1068380020650000727200006f7200000a000000fc
:1068480045720000726f000072200000696e00003f
:10685800202e00002e5c00006c690000625c0000c5
:10686800636f00006d6d00006f6e00005c700000cb
:1068780069630000323400005f7500006172000037
:10688800742e0000632000006c6900006e65000033
:1068980020370000363000003a2000004153000045
:1068a8005345000052540000286600005f62000053
:1068b80072670000203c00002036000035350000db
:1068c800333500002e3500002920000066610000e5
:1068d800696c0000656400002e0a00000045000095
:1068e800727200006f720000206900006e200000c4
:1068f8002e2e00005c6c0000696200005c630000e2
:106908006f6d00006d6f00006e5c00007069000024
:1069180063320000345f000075610000727400008b
:106928002e630000206c0000696e000065200000e6
:1069380038300000373a000020410000535300006f
:10694800455200005428000075330000325f0000f3
:106958006261000075640000526100007465000007
:10696800203e00003d2000003130000030300000a3
:106978004c29000020660000616900006c65000079
:10698800642e00000a00000045720000726f0000cb
:1069980072200000696e0000202e00002e5c0000ae
:1069a8006c690000625c0000636f00006d6d0000a0
:1069b8006f6e00005c7000006963000032340000f4
:1069c8005f73000065720000696100006c2e0000b2
:1069d800632000006c6900006e650000203700002d
:1069e800393a0000204900006e760000616c000012
:1069f8006964000020550000415200005400000066
:106a080030780000000500000302000001050000c6
:106a180003020000013200001e1400000a050000f5
:106a2800030200000105000003020000010000004d
:106a380050c3000030750000204e000010270000f1
:106a480088130000b80b0000d0070000e80300001e
:106a5800f40100002c010000c800000064000000e0
:106a6800320000001e000000140000000a000000b0
:106a78000500000003000000020000000100000003
:106a880045720000726f000072200000696e0000fd
:106a9800202e00002e5c00006c690000625c000083
:106aa800636f00006d6d00006f6e00005c70000089
:106ab80069630000323400005f73000065720000f3
:106ac800696100006c2e0000632000006c69000002
:106ad8006e65000020320000393400003a200000c2
:106ae800496e0000766100006c69000064200000b7
:106af8005541000052540000004500007272000029
:106b08006f720000206900006e2000002e2e000029
:106b18005c6c0000696200005c6300006f6d00003f
:106b28006d6f00006e5c0000706900006332000049
:106b3800345f00007365000072690000616c00003a
:106b48002e630000206c0000696e000065200000c4
:106b580033330000333a0000204900006e7600000d
:106b6800616c00006964000020550000415200007b
:106b78005400000045720000726f0000722000008f
:106b8800696e0000202e00002e5c00006c69000079
:106b9800625c0000636f00006d6d00006f6e0000a6
:106ba8005c70000069630000323400005f7400000c
:106bb800696d0000657200002e630000206c000003
:106bc800696e000065200000363100003a200000a0
:106bd800415300005345000052540000286600004d
:106be8005f740000696300006b730000203c0000c4
:106bf8002036000035350000333500002e35000002
:106c08002920000066610000696c000065640000ce
:106c18002e0a000000450000727200006f7200002a
:106c2800206900006e2000002e2e00005c6c000021
:106c3800696200005c6300006f6d00006d6f00000a
:106c48006e5c00007069000063320000345f000071
:106c5800746900006d650000722e0000632000005a
:106c68006c6900006e65000020370000393a0000aa
:106c780020410000535300004552000054280000f2
:106c8800665f000074690000636b000073200000f9
:106c98003c2000003635000035330000352e00005a
:106ca8003529000020660000616900006c6500005d
:106cb800642e00000a00000045720000726f000098
:106cc80072200000696e0000202e00002e5c00007b
:106cd8006c690000625c0000636f00006d6d00006d
:106ce8006f6e00005c7000006963000032340000c1
:106cf8005f740000696d0000657200002e6300007b
:106d0800206c0000696e0000652000003131000031
:106d1800333a000020410000535300004552000060
:106d280054280000753800005f540000434b0000f1
:106d380050530000203c00003d2000003329000093
:106d480020660000616900006c650000642e000088
:106d58000a0000000a4300003a5c00005573000076
:106d680065720000735c00004d69000063680000f4
:106d7800616500006c5c0000446f0000776e0000e5
:106d88006c6f000061640000735c00006c610000bf
:106d98006238000074610000736b0000322e00003e
:106da800632c000020620000756900006c7400000c
:106db800206f00006e200000446500006320000082
:106dc8002032000020320000303200003220000063
:106dd8006174000020310000363a000032300000b3
:106de8003a350000340a0000004100004443000026
:106df8003a200000253400002e33000066200000f1
:106e080056200000283000007825000030340000ab
:106e18007829000000440000414300003a200000a7
:106e2800253400002e3300006620000056200000a4
:106e38002830000078250000303200007829000052
:106e480000000000535000004931000020520000ab
:106e5800656300006569000076650000204f00004a
:106e680076650000726600006c6f0000770a00000b
:106e78000053000050490000322000005265000015
:106e88006365000069760000652000004f76000009
:106e980065720000666c00006f7700000a00000051
:106ea800636f00006e760000657200007441000098
:0c6eb800444300003128000029000000c5
:020000040000fa
:106ec400152ea9001a8ea9001c8ea900168ea900e1
:106ed400108ea9001aaea9001caea90016aea90016
:106ee40010aea9001acea9001ccea90016cea90086
:106ef40010cea9001a2ea9001c2ea900162ea90036
:106f0400102ea9001e2ea900000006001a8ea9004a
:106f14001c8ea900108ea8001aaea9001caea900f0
:106f240010aea8001acea9001ccea90010cea8004d
:106f34001a2ea9001c2ea900102ea8001e2ea9008e
:106f4400152ea80000000600614160004411dd0018
:106f540041e12000914078000144a10082c070000a
:106f64008000fd0014eeb7008000fd000080fb00ef
:106f74000001d100614161004511dd0041e12000c3
:106f8400914078000154a10082c070008000fd008f
:106f940014eeb7008000fd004201de006141610093
:106fa4004611dd0041e12000914078000164a10018
:106fb40082c070008000fd0014eeb7008000fd0068
:106fc4004300de00614060000040400041e12000d9
:106fd400914078000114a10080c070000100780085
:106fe40014eeb700000006001a0ea9001c0ea9003a
:106ff400160ea900100ea9001e0ea9001b2ea90032
:107004001d2ea900172ea900112ea9001baea90040
:107014001daea90017aea90011aea900152ea90036
:1070240015aea900140ea90000000600c00320003c
:107034000100200088ed070020808000318080005e
:1070440063004000e0804800208088003180880090
:1070540015aea800c0032000010020007eed07004b
:10706400208080003180800063004000e080480080
:10707400208088003180880015aea900c00320005c
:107084000100200074ed0700208080003180800022
:1070940063004000e0804800208088003180880040
:1070a40000000600889fbe008a9fbe008c1f7800e7
:1070b4008045780001457800034678000204e0002a
:1070c40029003200140ea90090ff070040c7bf003a
:1070d4004500de00e14460000060fe0040a7a80017
:1070e40015aea800c0032000010020005aed0700df
:1070f400208080003180800063004000e0804800f0
:10710400208088003180880028e12000184478001d
:107114000804d1006104640015aea900c003200076
:10712400010020004ced07002280800033808000a5
:1071340063014100e0814900228088003380880097
:10714400baff07000804e000e5ff3a00e1c064006c
:10715400c508dd0040c7bf000054a1000140700015
:1071640040e7b7000b003700007c220091002000ac
:1071740039ed0700c027290001002000228080008b
:10718400338080000201400083814800228088000f
:10719400338088004aff07000a04e000020032003e
:1071a400140ea80001003700140ea9000b80fb0088
:1071b4004400de0064ff07009cff07000c04e000ad
:1071c400030032000b4078005fff070097ff0700c1
:1071d4004f0678004f05be004f04be0000000600b5
:1071e400006c2c00d10220001bed0700c0c62d004e
:1071f40021002000228080003380800002014000b2
:107204008381480022808800338088008041eb001d
:10721400034178008340780000c2b300a1ff070057
:1072240013c0b3000041eb008240780080c2b30079
:107234009cff070013c0b3000041eb0082407800bc
:1072440080c2b30097ff070013c0b3000041eb00f6
:107254008240780060c0b30092ff070013c0b300ff
:107264000041eb0082407800c0c0b3008dff0700ee
:1072740013c0b3000041eb00824078000340780063
:1072840088ff070000f22b0021002000f2ec070029
:1072940020bf220001002000228080003380800073
:1072a40002014000838148002280880033808800e6
:1072b40000000600881f7800000478001040780061
:1072c4000004e0000700320013c0b300034178005b
:1072d4008340780073ff0700584078000004e00002
:1072e400f9ff3a004f04780000000600e013200084
:1072f4001012880041e2a800000006001a6ea900de
:107304001c6ea900166ea900106ea9001e6ea900bd
:10731400146ea80000000600881f7800004478005e
:10732400146ea90090002000300707000884fb00b9
:10733400080078002d070700146ea8004f04780099
:10734400000006000a2ea9000c2ea900062ea90092
:10735400002ea9000e2ea900000006003200f8003d
:10736400881f780008202000980188000000000091
:107374004f04780000e8a9003200f900004006003c
:107384001061a900000220008008880010c1bf001d
:107394004400de00630060005402070080007800af
:1073a40020032000d80107000000e90060088800dd
:1073b4000621ef0000e8a90031842000f0c8b300e2
:1073c400114060000044a0008048780020e8a80034
:1073d40011e1a800000006007a00fa00889fbe00b0
:1073e4008a9fbe00e06a2b007e010700fefe0700b4
:1073f4007bff07000a2ea9000c2ea900062ea90067
:10740400002ea9000e2ea900ddff07000e2ea800f5
:1074140012c0b300f1c1b3001000200079060700c8
:10742400b2ff0700b5ff0700e0f72f000f00400090
:107434008005e80000057800da03b000550607006f
:10744400000478004400de00e0ff9e006ff8960020
:10745400b1ff0700effc9600881f78006140b90077
:1074640029ed07000800e00003003d0002002000b1
:107474000378240050ed0700020020000398230045
:10748400eeed07003233230033052400ebed070053
:10749400809fbe00916f2b00811f78000b00780045
:1074a40067f2070072f72f000280470081ff070090
:1074b40013c0b300034178008040eb0000ccb3005c
:1074c400f8fe07000a047800eff196000380fb0041
:1074d400801f78000900fb00cf80de000aed070062
:1074e4000904e00003003d000200200003382400ea
:1074f40031ed07000200200003b82300cfed0700a0
:107504003233230033052400cced0700809fbe00f6
:10751400f0702b00801f78000800780048f2070004
:10752400b0fa2f000080470062ff070000882a009d
:107534002111200048ec070080a82200110120003e
:107544002280800033808000020140008381480053
:107554002280880033808800f0875700b7ff370007
:107564001beea9001deea90017eea90011eea9005b
:1075740017eea800007c2200008088009000200004
:10758400108088000430ef000630ef0015eea900eb
:107594000100070000000600208080003180800088
:1075a40061014000e0814800228088003380880027
:1075b4000080800011808000800f5100818f59006d
:1075c40003003600030007000430ef000630ef002c
:1075d4000000060015cebf0000c0ea000080fb00da
:1075e4004700de004700dd0052e1200092407800b1
:1075f4000174a10000c97000000006003600f80004
:10760400809fbe00829fbe00849fbe00869fbe00f6
:107614003200f800002020009001880000000000e3
:107624004046800070808800c0b02a000700070030
:107634003200f9004f03be004f02be004f01be00ee
:107644004f00be003600f900004006000c10e200b6
:1076540002003a00608088000000fe00000006007e
:10766400000178004008de00a00288001280ba0001
:107674001201ba0001002000c000dd00000020005b
:1076840003002000020070008380700000000600e8
:10769400889fbe008a9fbe008c9fbe008e1f78000c
:1076a40000002000f10f2000edff07000004be00e1
:1076b40020002000f10f2000e9ff07000005be00b4
:1076c400d0e42100800f5400e08f5c0003003a00f6
:1076d4001ec0b3002cb22a00020037000047eb00a2
:1076e4004cb32a00cdb32a0030002400800f55008b
:1076f400e08f5d00010032004db32a00f0b32a0090
:107704002f0307000800be0080030700c0b42a004e
:107714002b0307000c00780029030700f0b42a00ab
:10772400270307000a00be0078030700c0b42a003c
:10773400230307000d00780021030700c0b52a00c9
:107744001f0307000e04e00002003a00f0b52a000f
:107754001b0307004f0778004f06be004f05be000d
:107764004f04be000000060043c7bf004400de0013
:1077740067006000e34f50001600320004003e0032
:10778400e14f50000d0032000f003e0008003700aa
:10779400e54f50001500320011003900e64f50004b
:1077a40015003200e74f500019003a001500370069
:1077b40060df2a00020307001700370030e02a00c8
:1077c400ff0207001400370090e12a00fc020700c2
:1077d4001100370030e32a00f90207000e003700d9
:1077e40060e52a00f60207000b00370050e62a0085
:1077f400f30207000800370070e72a00f0020700d0
:107804000500370070e82a00ed0207000200370087
:1078140060e92a008dff07000000060040c7bf0092
:107824000038a30003003200f0ea2a00e402070053
:107834004067a90040c7bf000028a300030032002e
:10784400f0ec2a00de0207004047a900e0ee2a001f
:10785400db02070040c7bf000008a3000900320094
:10786400d0ef2a00d60207004007a9004027a9004c
:107874000000eb00608088008080880070808800b1
:107884003d00370040c7bf000044b20002003a0088
:10789400804078000500370080f02a00c802070005
:1078a40040c7a90040e7a90011c0b30040c7bf000a
:1078b4000048a3000b00320090f12a00c002070028
