:020000040000fa
:080000000013040000000000e1
:020000040000fa
:1020000002000000b42e040000000000b42e040002
:1020100000000000b42e040000000000b42e0400f4
:1020200000000000b42e040000000000b42e0400e4
:1020300000000000b42e040000000000b42e0400d4
:1020400000000000b42e040000000000b42e0400c4
:1020500000000000b42e040000000000b42e0400b4
:1020600000000000b42e040000000000b42e0400a4
:1020700000000000b42e040000000000b42e040094
:1020800000000000b42e040000000000b42e040084
:1020900000000000b42e040000000000b42e040074
:1020a00000000000b42e040000000000b42e040064
:1020b00000000000b42e040000000000b42e040054
:1020c00000000000b42e040000000000b42e040044
:1020d00000000000b42e0400000000005c2b04008f
:1020e00000000000b42e040000000000b42e040024
:1020f00000000000b42e040000000000b42e040014
:1021000000000000b42e040000000000b42e040003
:1021100000000000b42e040000000000b42e0400f3
:1021200000000000b42e040000000000b42e0400e3
:1021300000000000b42e040000000000b42e0400d3
:1021400000000000b42e040000000000b42e0400c3
:1021500000000000b42e040000000000b42e0400b3
:1021600000000000b42e040000000000b42e0400a3
:1021700000000000b42e040000000000b42e040093
:1021800000000000b42e040000000000b42e040083
:1021900000000000b42e040000000000b42e040073
:1021a00000000000b42e040000000000b42e040063
:1021b00000000000b42e040000000000b42e040053
:1021c00000000000b42e040000000000b42e040043
:1021d00000000000b42e040000000000b42e040033
:1021e00000000000b42e040000000000b42e040023
:1021f00000000000b42e040000000000b42e040013
:1022000000000000b42e040000000000b42e040002
:1022100000000000b42e040000000000b42e0400f2
:1022200000000000b42e040000000000b42e0400e2
:1022300000000000b42e040000000000b42e0400d2
:1022400000000000b42e040000000000b42e0400c2
:1022500000000000b42e040000000000b42e0400b2
:1022600000000000b42e040000000000b42e0400a2
:1022700000000000b42e040000000000b42e040092
:1022800000000000b42e040000000000b42e040082
:1022900000000000b42e040000000000b42e040072
:1022a00000000000b42e040000000000b42e040062
:1022b00000000000b42e040000000000b42e040052
:1022c00000000000b42e040000000000b42e040042
:1022d00000000000b42e040000000000b42e040032
:1022e00000000000b42e040000000000b42e040022
:1022f00000000000b42e040000000000b42e040012
:1023000000000000b42e040000000000b42e040001
:1023100000000000b42e040000000000b42e0400f1
:1023200000000000b42e040000000000b42e0400e1
:1023300000000000b42e040000000000b42e0400d1
:1023400000000000b42e040000000000b42e0400c1
:1023500000000000b42e040000000000b42e0400b1
:1023600000000000b42e040000000000b42e0400a1
:1023700000000000b42e040000000000b42e040091
:1023800000000000b42e040000000000b42e040081
:1023900000000000b42e040000000000b42e040071
:1023a00000000000b42e040000000000b42e040061
:1023b00000000000b42e040000000000b42e040051
:1023c00000000000b42e040000000000b42e040041
:1023d00000000000b42e040000000000b42e040031
:1023e00000000000b42e040000000000b42e040021
:1023f00000000000b42e040000000000b42e040011
:1024000000000000b42e040000000000b42e040000
:1024100000000000b42e040000000000b42e0400f0
:1024200000000000b42e040000000000b42e0400e0
:1024300000000000b42e040000000000b42e0400d0
:1024400000000000b42e040000000000b42e0400c0
:1024500000000000b42e040000000000b42e0400b0
:1024600000000000b42e040000000000b42e0400a0
:1024700000000000b42e040000000000b42e040090
:1024800000000000b42e040000000000b42e040080
:1024900000000000b42e040000000000b42e040070
:1024a00000000000b42e040000000000b42e040060
:1024b00000000000b42e040000000000b42e040050
:1024c00000000000b42e040000000000b42e040040
:1024d00000000000b42e040000000000b42e040030
:1024e00000000000b42e040000000000b42e040020
:0c24f00000000000b42e040000000000fa
:020000040000fa
:102600000f1721000eff24000e01880000000000bb
:102610000c00070080662300010020001d00070059
:10262000000020000000e000020032000000020074
:1026300000000000962d0200000000000040da00bb
:102640000000fe00c0af20000000e00002003200e9
:10265000002020009001880000000600f03fb1003b
:102660000180b10006003500ee0309000000000003
:10267000403fb1000180b100fbff3d001000b00001
:10268000203fb0000200350000800900000000007b
:1026900000000600a1028800800078000000eb0026
:1026a0001a003700e280400054a0b4009101ba0043
:1026b000e280400054a0b4009102ba00e2804000e1
:1026c00054a0b4000002eb00472bde00f507b20077
:1026d000a6018800602ce10008003a000049eb00e8
:1026e0000201e800020039003420ec0002f0a000f2
:1026f0008301e900f9ff3e00040037006128e10092
:10270000010032000082eb00040007001101ba0052
:102710000200e000e3ff3a000000060004d0a3003e
:10272000e20f49001c003900810278003549ba00e7
:102730000201e800020039003420ec0002f0a000a1
:102740008301e9000f0032002549ba000201e800c8
:10275000020039003420ec0002f0a0008301e900ff
:10276000080032000400e0000600320015c9ba007b
:102770000201e800020039003420ec0002f0a00061
:102780008301e9008180e80054a0b4000300e00068
:10279000e2ff3a00000006009102ba0005597800f5
:1027a0008301e900f7ff3200c82ade0005597800ee
:1027b0008301e900f3ff32000400e000f1ff320082
:1027c00011d9ba00eeff37000a00fa008001780044
:1027d000e20f500027003e0050888000e10f5000bb
:1027e00008003200802320000000e00005003200d5
:1027f00004232000252320004623200080017800a8
:102800000400370004222000252220004622200058
:1028100083222000144090000004e00004003500f2
:102820008009eb00144090000074a0001042980052
:10283000154090000028a30003003a0015409000c6
:102840000024a000904298008001eb0006003700b1
:10285000154090000008a300fdff32003100fb008e
:10286000000b78008301e800828f5100f8ff3a00e6
:102870000800370030002000b0bf9f00c3bf9f009a
:10288000d1bf9f00e2bf9f006a80570000c0da00fe
:102890006fb99700020078000080fa00000006007f
:1028a0000001be001a0107000470a70003f0a10098
:1028b00003f8a30013003a006509b10010003200cc
:1028c000090035006928e1000200350001002800f8
:1028d0000000050000004000818048008502e900fa
:1028e000fcff3a0000000600f88f420005003500aa
:1028f0008100d1000080d3008502e800fcff3a008f
:10290000000006008000eb0000000500889fbe006c
:102910008a9fbe00010578000100e0000400350038
:1029200008003c000000e0002000320005003700f5
:1029300060001000e080180002003b0001f02c0055
:102940001a0037000004be006011b8006b092000b7
:102950000982cf00020039000882cf000441b00094
:10296000694252000e00320008003b008281710073
:10297000610164008904d1000884d3008b05e8005c
:102980000442e800f9ff3a0005003700080444005b
:1029900089844c008b05e9000442e900fbff3a0002
:1029a000f00007000af0a70001f0a0004f05be00ec
:1029b0004f04be000000060003f0a200889fbe0086
:1029c0008a9fbe008c1f78000c01070013013300a2
:1029d0006450e1004f0032006420e10052003200f8
:1029e00003826c0007003b000905d0000306d000fd
:1029f000820f54000c065d00020039000200320014
:102a000089017800030678008582550004003d00a6
:102a10000003fd008103fd008502ea008b85420072
:102a2000840f720002003b0060001000e08018007c
:102a30006011b8000005eb007a28e1000a003900b7
:102a400006007800c75ddd00f707b20087807500db
:102a50002d003700828171000a0178006105600055
:102a60008180d1000080d3008502e900f9ff3b009e
:102a7000060440008784480002003b006004140004
:102a8000e0841c000988a300070032008a817100dd
:102a900082817100610164008904d1000884d3003f
:102aa0008b05e800170037000978a30013003a00ef
:102ab0000b00e000130034008b05e900080444001b
:102ac00089844c000a4474000978a3000d003a0080
:102ad0000b00e000070034008b05e9000804440007
:102ae00089844c0001003a000b0020000978a30003
:102af000f7ff32000001eb00020037008281710015
:102b00000a017800970007000cf0a70001f0a00070
:102b1000cb0037006420e10002003a00838f6c0094
:102b2000cb0033000801be000200be00c400370025
:102b300014002000c9003700889fbe008a9fbe0095
:102b40008c1f7800ad000700b400330003866c00d2
:102b50006450e1002e0032006420e10033003200b6
:102b60006150e1002f0032006120e10031003200ad
:102b700085855500eb07b0000900200008042000ff
:102b8000050037000804440089844c000a00310025
:102b90000603430087834b000001530081815b00e3
:102ba000f8ff33000203be000800a0000804440040
:102bb00089844c00f6ff3900c639dd0083017300bb
:102bc00001003200130020008904d1000884d300e2
:102bd0000998a300050032000800a7000300a00028
:102be0008904d1000884d3008b05e8008904d10052
:102bf0000884d3000001eb000281d20059000700d5
:102c000001f0a1000cf0a70001f0a0008c0037003b
:102c10006420e1008e0032000801be000200be0008
:102c2000f7ff37006120e100890032006000b80042
:102c3000f3ff37000000200001f82700f0ff370005
:102c4000889fbe008a9fbe008c1f78006b00070023
:102c50007200330003866c006450e10024003200ef
:102c60006420e100270032006150e10022003200c0
:102c70006120e100210032008b854200eb07b100aa
:102c80000134b800003ab8000804420089844a00c0
:102c9000013ab8000030b8008880400009014a00bd
:102ca0000400330000004000818048000201490018
:102cb0008b05e900c909dd008301700001003200c5
:102cc00013002000c814de004814dd004709de00b0
:102cd0001200b200c808de0008847000210007005e
:102ce00001f0a1000cf0a70001f0a0005400370093
:102cf0006120e100560032000801be000200be0063
:102d0000f7ff37006150e100fcff3a005000370048
:102d1000c70ade00f107b200f50fb200080032006a
:102d2000e1cf4200020032000170a0002400050043
:102d3000810f700001003200040805004400050006
:102d4000810f700002003a00140005008502e900be
:102d50000000400081c04800fcff3b000170a00063
:102d60002400050081002000618055000b003d001b
:102d70000b00200061fe2f000100e1001d00340067
:102d800082817100610164008904d1000884d3004c
:102d90000000e800faff3a007100200061006400c2
:102da000030070000200600009003200610444006a
:102db000e0844c000988a500050032008b05e8007e
:102dc0006808e10002003a008904d1000884d300b9
:102dd000f20f20000258e10005003d00c75ddd0054
:102de000f907b2008980750008007800000006002d
:102df0000bf827008b007800000005000004be00df
:102e0000c3ff07000003be000405be000200be00b1
:102e1000bfff0700844f7500000006000200be00df
:102e20006450e100050036006420e1000200360035
:102e30000968a30001003a000800be000160a0007c
:102e40004f0678004f05be004f04be00000006008c
:102e5000f0ff2f00f1ff2700f9ff3700889fbe0029
:102e60008a9fbe00841f7800e4ff07004f007800af
:102e700011003300f0ff2f00838f6c0006003b0031
:102e8000040565000a00a7000800370009f0a60045
:102e90001000200008003700820f5400838f5c0070
:102ea000030039001000200001003e000000200057
:102eb00009f0a7000000ea004f05be004f04be0065
:102ec0000000e00000000600881f78000004780081
:102ed0005001be004000be00040040008580480054
:102ee0000601490087814900009cbe000294be0093
:102ef0000400e1000588e1000690e1000798e10088
:102f000002003100680044001008e8004f04780017
:102f100000000600f4874700889fbe008a9fbe001d
:102f20008c9fbe008e1f78000205be000004be000c
:102f3000d4b79f00e5b79f00f6b79f0087bf9f00fb
:102f40000000eb00c0b79f00b0b79f00a0b79f0084
:102f500090b79f0080b79f000d042000bfb097007e
:102f60004fb09700000140000000e0000f003d005e
:102f70004f08de0000007100c0b79f009e000700f0
:102f800001003d0012002000a100070001003d00eb
:102f900012002000a6000700b1000700b6000700dd
:102fa0000f004000c8ff0700220037004f08de0076
:102fb00000067100ccb79f008f00070001003d00a4
:102fc000120020009200070001003d0012002000c6
:102fd00097000700a20007000fb297009fb297006a
:102fe0002fb39700bfb39700a9000700000052005d
:102ff00081805a0002015b0083815b0080b79f00e3
:1030000091b79f00a2b79f00b3b79f000007eb00e6
:103010009f0007000020e10001a8e10002b0e100ec
:1030200003b8e100010031001e0020000e00560030
:10303000c0b79f004fb297000400e00007003500c2
:1030400010002000010020006011b800080470008a
:10305000898470000a0571008b8571008d06e90076
:10306000beff3a000400e00003003d0082000700bc
:103070000f00400094ff07004fa897000000e000f9
:1030800004003a000fb497009fb497002fb5970043
:10309000bfb59700940007004f0778004f06be00a9
:1030a0004f05be004f04be004f01b10000000600f6
:1030b000881f780018002000881f780095ff0700ff
:1030c0008f87e9004f04780000000600801feb00a6
:1030d00090ff07008f87e90000000600889fbe0070
:1030e0008a9fbe008c1f78006e00070007003d001d
:1030f00073000700e00f5b00e08f5b0007003d00fe
:10310000320007000006eb0004003700340007001f
:1031100002003d002a0007001c002000720007008a
:10312000e3ff07000203be000002be000c00e00047
:1031300001003200220007000400be000601be00ac
:103140004f0678004f05be004f04be000000060089
:10315000889fbe008a9fbe008c1f78005100070028
:1031600005003d0056000700e00f5b00e08f5b00ac
:1031700006003d00040037001900070003003d0071
:103180006000b8006011b80010000700560007008a
:10319000ceff07000203be000002be000c00e000ec
:1031a00001003200060007000400be000601be0058
:1031b0004f0678004f05be004f04be000000060019
:1031c0006000b8006011b800000037000402500031
:1031d00085825800060359008783590000000600c5
:1031e0000006eb00e00f5200e08f5a00e00f5b009a
:1031f000e08f5b00000006000180400090b79f0058
:103200000001eb008fb097000100e0000000060015
:103210000200700090b79f000180400080b79f00bf
:103220000001eb00ffa897000100e000000006008d
:103230000200700080b79f00018040006faa9700d5
:10324000cf20de0001007000f0af9f0004024200ba
:10325000250007004f18de00000272000000060083
:10326000e4af9f000804440089844c000a054d0027
:103270008b854d00000006003fb29700cfb297004b
:103280005fb39700efb3970000fe2f000000060029
:103290003fb09700cfb097005fb19700efb19700b4
:1032a000000006000205be000004be00e00f500052
:1032b000e08f5800e00f5900e08f59000000060031
:1032c0006000b8006011b8000804500089845800fc
:1032d0000a0559008b8559001c002000e00f5200a0
:1032e000e08f5a00000006000800be000a01be0080
:1032f000000006000c00fa00889fbe000004780061
:10330000cfb09700f0ff2700d0bf9f008004eb00f4
:1033100099bf9f0088bf9f00a8bf9f00200c20007e
:10332000b0bf9f00788157007080570008000700e9
:103330000fb89700094878000fb8970008045000ac
:10334000080078004f04be000080fa00000006006c
:10335000fe874700889fbe008a9fbe008c9fbe00ec
:103360008e1f7800f0b79f000107780082bf9f0092
:103370000000eb00a0b79f009e0237008006eb0024
:1033800050c2b30080cf5000090032000100fb00a2
:10339000ffb09700a2020700e10f40009502320043
:1033a000afb097008100e800a1b79f0091023700fd
:1033b0009e407800d0c2b30080cf50000c00320095
:1033c00007003c006d40500080cf50000a003200e2
:1033d0006b40400080cf50000e003a0008003700dc
:1033e00000c3b30080cf50000a003a000600370047
:1033f0000d30a000050037000d00a00003003700cd
:103400000d10a000010037000d20a0000e07e800fd
:10341000e7ff37000d18a300010032000d00a100e6
:103420000d38a300010032000d20a1000100fb00b7
:1034300002fd2f0002004000e90f50000d003e0089
:103440008001eb00c3b79f004fb29700ea20b8009d
:103450009e00fb000100400002004000c0b79f003a
:103460005e00fb0002004000e90f50000b003e0030
:10347000f5ff37008002eb00c5b79f00a0c2b30084
:1034800080cf500005003a000fbe97004c00780036
:103490008cbf9f00c0b79f000e07e8008000eb00c4
:1034a000b1b79f00e0c2b3009e4f100018003a0071
:1034b0000de0a0008e00e80064405000914f100025
:1034c00002003200010778000c0037008fb9970026
:1034d0004302780083bf9f00b4b79f000e87e800c7
:1034e0000b003700bfb29700ea28b8000100400087
:1034f00002004000b0b79f000e07e8009e00fb00ee
:1035000002fd2f0002804000e90f5000f5ff360059
:10351000be407800e1d79f00c0c6b30080cf500006
:10352000220032000f003c006940500080cf500064
:103530007700320004003c000104e0003102320058
:103540006b4050000f00370040c6b30080cf5000e2
:10355000930032006540400080cf50008b003a005d
:103560008f00370030c7b30080cf50001a00320000
:1035700007003c006440500080cf50001100320032
:103580000040e80080cf500080003a000f00370074
:1035900050c7b30080cf500080003200634040002d
:1035a00080cf500079003a00090037000000280061
:1035b0000d48a30001003a0000012000808676003b
:1035c000d3ff37000d60a000750037000d50a0003c
:1035d0000d70a000720037000fbe97004c007800fd
:1035e0008cbf9f00000478000000e00001003a005a
:1035f000480b21008004eb00010037008104e80043
:1036000089007800088044001004e000fbff3a00c5
:103610003fb097000000e00003003200890f500027
:1036200001003100800478008000eb00e1af9f00d2
:103630004fb19700890f5100020036000900510078
:10364000e0af9f004368de00e10660001b003a0027
:103650000d06780009003700ffb097000002200037
:10366000ef010700e10f400003003200afb1970007
:103670008301e800a3b79f000c06e8006faa97003b
:10368000840f5600f4ff3a008082eb00e5af9f0004
:103690000a003700880078003100fb000104780040
:1036a000ffb09700de010700e10f40000300320089
:1036b0002fb697000c06e800acb79f000900e900a0
:1036c00080047800e10f4000f2ff3a000006eb00b2
:1036d0000d00e0000a003a00c6013700ffb0970075
:1036e00000022000ce010700e10f4000030032007d
:1036f0002fb097000000e800a0b79f000c06e8007c
:10370000efa89700810f5600f4ff3a00b901370087
:103710000fb997004200780082bf9f00cf80de0083
:1037200001017800820178000205be000004be009d
:103730000203be000002be004822de00482edd006b
:1037400004027600e4d79f000d48a3000a0032006f
:103750000404e00008003200e14f4200060032009d
:1037600071fd2f0001804700044878001840980040
:103770002900200002003700f0d79f001900200028
:1037800072fd2f0002844700a1ff370063fd2f0068
:1037900003844700190020009dff37000d0cb30083
:1037a0000d007800000cb20028003a000d00e00087
:1037b00005003d000fba97004405be004404be005a
:1037c00084bf9f00140037000d48a3000b00320097
:1037d0008fba97004500be0085bf9f004f89de006d
:1037e000cf91de000002be00020378008203780061
:1037f0000605be000404be00070037000fbe970098
:103800004c0078008cbf9f0000047800cfc4de001d
:10381000090578008a057800e00f5400e08f5c000d
:10382000e00f5d00e08f5d001f003d003d00b30034
:103830006000b8006011b800080450008984580086
:103840000a0559008b855900170037000d00e0006c
:1038500005003d000fb897004005be004004be00c3
:1038600080bf9f00100037000d48a3000700320002
:103870000fba97004400be0084bf9f006011b800db
:103880000205be000004be00070037008fba970093
:103890004500780085bf9f000004780009002000e3
:1038a0000a0020000b0020003fb697000c00e0004b
:1038b00007003a00e00f5400e08f5c00e00f5d006d
:1038c000e08f5d0002003a0010002000b0b79f00ba
:1038d0008d007800010cb200e1b79f0000042000c9
:1038e000808f50003000320003003c000100e000f7
:1038f0000800320040003700000820006fb1970038
:10390000800f510014003200000c2000800f510085
:1039100039003a0014c0b300450121000b00370004
:103920000400fb004300dd00050040005001be0024
:103930004000be000040e10001c8e10002d0e1000b
:1039400003d8e1002b0039000442e800f44f520094
:10395000f3ff3a002700370000012000010020009b
:103960006011b80014c0b3000040e10001c8e100dc
:1039700002d0e10003d8e1001e003900450020001c
:103980000000d0008180d2000281d2008381d20069
:103990008502e900faff3a000442e800f04f5200c5
:1039a000f1ff3a00130037008000200001002000e2
:1039b0006011b80014c0b3000040e10001c8e1008c
:1039c00002d0e10003d8e1000a0039003c002000e9
:1039d0000000d0008180d2000281d2008381d20019
:1039e0000c06e900faff3a000442e800f54f5200e5
:1039f000f1ff3a00e4d79f00efd097000100fb00f1
:103a00003fb19700820f500002003d00e2d79f00b7
:103a100004003700bfb19700808f510001003d00c6
:103a2000b0b79f004fb297000400e00004003200de
:103a300063806600020032000402e900c4b79f0000
:103a40000de8a3000b003200cfb297003fb69700fd
:103a50008c8f520003003c000000eb00c0b79f00b9
:103a600004003700cfb097003fb19700828050002c
:103a7000c1b79f00efd197000300fb000002eb00ed
:103a8000d4af9f00cfb29700808f52000200340065
:103a900000805200d0af9f000d28a30036003200f6
:103aa000e18066000d18a3000c003200d002200057
:103ab0000100e00001003a000080e900ffb097003b
:103ac000d7000700e10f40000e0032002fb697002c
:103ad0000c06e800acb79f000a0037000100e000c8
:103ae00008003200ffb0970000022000cc00070061
:103af000e10f4000030032002fb097000000e80003
:103b0000a0b79f00dfa897000100e0000f0032007f
:103b10000006eb00ffb0970000032000c000070084
:103b2000e10f4000030032002fb197000201e800ce
:103b3000a2b79f000c06e800dfa99700830f56008c
:103b4000f4ff3a000002eb00d4af9f00bfb2970031
:103b50004328dd00c10021000100400090b79f0014
:103b60004228dd006400500080b79f00e32eb800bb
:103b7000fcaf9f00840037005fa897000000e000c2
:103b800011003200688066000f003a0000067800dd
:103b9000ffb0970000022000a1000700e10f4000e5
:103ba00003003200afb097008100e800a1b79f008a
:103bb0000c06e8005fa99700820f5600f4ff3a0058
:103bc0008001eb00d3af9f00e18066000d18a300d9
:103bd0000c003200d00220000100e00001003a0099
:103be0000080e900ffb097008d000700e10f400062
:103bf000d6ff32002fb297000402e800a4b79f005e
:103c0000d2ff37000100e000d0ff3200ffb0970084
:103c10000002200082000700e10f4000cbff3200cd
:103c2000afb297008502e800a5b79f00c7ff370035
:103c300000042000efb09700808f50003200320067
:103c400003003c000100e000080032003f003700a4
:103c5000000820006fb19700800f51001100320062
:103c6000000c2000800f510038003a009fb19700ef
:103c70003302be002303be000800be000a01be00de
:103c80000bfd0700a4002000050020006033b800f1
:103c90000efd070004c3b30004424000e4d79f00b8
:103ca0002a003700b50b2100d5b79f000d58a3009f
:103cb00002003a00c00c2100d0b79f001400200081
:103cc000050020006033b8008fb097008100e90044
:103cd000050033000402d0008582d2000683d200a2
:103ce0008783d200f9ff37000800be000a01be003a
:103cf000effc07006f0060005fb19700000041001b
:103d0000104078001000370014002000050020004b
:103d10006033b8008c0178008301e90005003300ae
:103d20000402d0008582d2000683d2008783d200ad
:103d3000f9ff37000800be000a01be00dcfc0700e6
:103d4000674060000043b000e0d79f006fd297004b
:103d50000400fb00ffb0970031000700e10f4000b6
:103d600003003200afb297008502e800a5b79f00bc
:103d70001fb097006800500090b79f008fb0970069
:103d8000e480500081b79f0063065600d0ff2f00eb
:103d90003fb197008010b8007faa97000000420052
:103da00063005000800f5600a1ff3a000d38a300b9
:103db00010003200dfaa97000500e0000d0034007b
:103dc0000006eb00ffb0970000022000140007007f
:103dd000e10f4000030032002fb097000000e80020
:103de000a0b79f000c06e800dfa89700810f5600df
:103df000f4ff3a00be407800e1d79f000104e000e4
:103e00005efd3a002fb097004f0778004f06be00c6
:103e10004f05be004f04be00ef01b10000000600d8
:103e2000889fbe000001780001047800b100900076
:103e30000118a3003d0032000198a30003003a00de
:103e4000180090000000e00038003a000190a00047
:103e50003104980082047800f90fb2001800900035
:103e60000000e00002003a0028009000000c7800fa
:103e7000ea8f540006003a00380090000078a30052
:103e800003003a0088007800d0002000e4ff07001b
:103e90009800900058009000808f50000b00320076
:103ea0000100e80010049800180078000958780014
:103eb000000c780011c0b300801021000148780088
:103ec000ea8f54000600320019003700880078009d
:103ed00009407800190007008004780014003700ba
:103ee000380090000088a3001100320018019000f3
:103ef000a80090004800900033fa07009800900056
:103f0000810f500004003200380090000003b3001d
:103f1000300498008084eb000000eb00100498004f
:103f200028009000000c7800010037008084eb002e
:103f3000090078004f04be00000006000200fa00ed
:103f4000889fbe00a0ff9f0001047800b100900090
:103f5000810478000904b200020032000000fb0076
:103f6000360037000118a30005003a000103b30032
:103f700031049800190498000080eb002f003700ee
:103f8000580090000000e00006003a004800900051
:103f900012002000e68057000bfa07001904980071
:103fa00024003700280090000000e00008003a00dc
:103fb0004010210020049800000c78002000200010
:103fc00050049800100498000130a00031049800bb
:103fd00018019000a800900048009000faf907002e
:103fe00028009000000c78000080eb00100498007e
:103ff00018007800aff8970001587800000c78009e
:104000002ff89700ea4f50000a003a00380090005d
:104010000088a3000700320018019000a80090005b
:1040200048009000e8f9070019049800a8009000e3
:10403000010c7800aff897000100fb004f04be00b0
:084040000080fa0000000600f8
:020000040000fa
:020000040002f8
:04afe000cfff00009f
:020000040000fa
:020000040002f8
:04afe400efff00007b
:020000040000fa
:020000040002f8
:04afe80079ff0000ed
:020000040000fa
:020000040002f8
:04afec005bff000007
:020000040000fa
:020000040002f8
:04aff00078ff0000e6
:020000040000fa
:020000040002f8
:04aff400cfff00008b
:020000040000fa
:1000080002100000061000000a1000000e10000088
:1000180012100000161000001a1000001e10000038
:1000280022100000261000002a1000002e100000e8
:1000380032100000361000003a1000003e10000098
:1000480042100000461000004a1000004e10000048
:1000580052100000561000005a1000005e100000f8
:1000680062100000661000006a1000006e100000a8
:1000780072100000761000007a1000007e10000058
:1000880082100000861000008a1000008e10000008
:1000980092100000961000009a1000009e100000b8
:1000a800a2100000a6100000aa100000ae10000068
:1000b800b2100000b6100000ba100000be10000018
:1000c800c2100000c6100000ca100000ce100000c8
:1000d800d2100000d6100000da100000de10000078
:1000e800e2100000e6100000ea100000ee10000028
:1000f800f2100000f6100000fa100000fe100000d8
:1001080002110000061100000a1100000e11000083
:1001180012110000161100001a1100001e11000033
:1001280022110000261100002a1100002e110000e3
:1001380032110000361100003a1100003e11000093
:1001480042110000461100004a1100004e11000043
:1001580052110000561100005a1100005e110000f3
:1001680062110000661100006a1100006e110000a3
:1001780072110000761100007a1100007e11000053
:1001880082110000861100008a1100008e11000003
:1001980092110000961100009a1100009e110000b3
:1001a800a2110000a6110000aa110000ae11000063
:1001b800b2110000b6110000ba110000be11000013
:1001c800c2110000c6110000ca110000ce110000c3
:1001d800d2110000d6110000da110000de11000073
:1001e800e2110000e6110000ea110000ee11000023
:1001f800f2110000f6110000fa110000fe110000d3
:1002080002120000061200000a1200000e1200007e
:1002180012120000161200001a1200001e1200002e
:1002280022120000261200002a1200002e120000de
:1002380032120000361200003a1200003e1200008e
:1002480042120000461200004a1200004e1200003e
:1002580052120000561200005a1200005e120000ee
:1002680062120000661200006a1200006e1200009e
:0c02780072120000761200007a120000e2
:020000040000fa
:10404800556e0000686100006e6400006c65000039
:1040580064200000696e0000746500007272000040
:1040680075700000742c00002000000064730000cc
:104078005049000043330000334500005031000030
:104088003238000047500000353000003200000090
:10409800756e00006b6e00006f7700006e00000008
:1040a80041330000004400006576000069630000a9
:1040b8006520000049440000203d00002000000069
:1040c80020280000002900002c2000007265000054
:1040d80076690000736900006f6e00002000000020
:1040e800290a0000000a00000a2a00002a2a000003
:1040f8002a2a00002a2a00002a2a00002a2a000068
:104108002a2a00002a2a00002a2a00002a2a000057
:104118002a2a00002a2a00002a2a00002a2a000047
:104128002a2a00002a2a00002a2a00002a2a000037
:104138002a2a00002a2a00002a2a00002a2a000027
:104148002a2a00002a2a00002a2a00002a2a000017
:104158002a2a00002a0a00002a20000057410000ed
:10416800524e0000494e0000472000002d2000005c
:10417800746800006973000020700000726f00000e
:1041880067720000616d0000207700006173000015
:10419800206300006f6d0000706900006c6500000e
:1041a80064200000666f0000722000007468000040
:1041b80065200000777200006f6e00006720000025
:1041c800202a00000a2a0000206300006869000015
:1041d800702e000020540000686900007320000061
:1041e800707200006f670000726100006d200000af
:1041f8006d61000079200000707200006f6400009b
:104208007563000065200000756e00006578000089
:10421800706500006374000065640000206200009f
:1042280065680000766900006f72000021200000b8
:104238002a0a00002a200000456400006974000072
:1042480020740000686500002068000065610000b7
:104258006465000072200000666900006c6500005b
:1042680073200000746f000020700000726f00005f
:1042780070650000726c0000792000006465000021
:10428800666900006e65000020740000686900001f
:10429800732000006368000069700000202a000095
:1042a8000a2a0000206100006e64000020740000eb
:1042b8006f200000696e00007375000072650000d1
:1042c800206300006f7200007265000063740000d4
:1042d800206f0000706500007261000074690000c2
:1042e8006f6e00002e20000020200000202000001b
:1042f80020200000202000002020000020200000b6
:104308002020000020200000202000002a0a0000b1
:104318002a2000002020000020200000202000008b
:104328002020000020200000202000002020000085
:104338002020000020200000202000002020000075
:104348002020000020200000202000002020000065
:104358002020000020200000202000002020000055
:104368002020000020200000202000002020000045
:104378002020000020200000202a00000a2a000037
:10438800204e00004f540000453a0000204900002c
:104398006620000074680000697300002077000040
:1043a80061730000206300006f6d000070690000f9
:1043b8006c65000064200000666f00007220000039
:1043c8007468000065200000636f000072720000ce
:1043d80065630000742000006368000069700000d5
:1043e8002c200000202000002a0a00002a200000bb
:1043f800616e0000642000006f6e00006c790000a0
:10440800206f0000636300007572000073200000d5
:1044180061740000207000006f7700006572000072
:104428002d6f00006e200000286e00006f740000e1
:104438002064000075720000696e000067200000ab
:10444800612000004d4300004c5200002020000075
:1044580020200000202a00000a2a00002072000004
:104468006573000065740000292c000020760000a8
:104478006572000069660000792000007468000019
:1044880061740000204100005644000044200000f0
:10449800616e000064200000415600005353000084
:1044a8002061000072650000206300006f6e00004c
:1044b8006e65000063740000656400002e20000033
:1044c800202000002a0a00002a2000004f6e000069
:1044d8002074000068650000205000004943000077
:1044e80032340000483300003247000050320000e8
:1044f800303200002c2000006e6f00007420000095
:10450800636f00006e6e0000656300007469000050
:104518006e6700002041000056440000442000005f
:104528002020000020200000202000002020000083
:10453800202a00000a2a000020700000726f000084
:104548006475000063650000732000007468000053
:1045580069730000206d000065730000736100003e
:1045680067650000206f00006e6c00007920000075
:1045780061740000207000006f7700006572000011
:104588002d750000702e0000202000002020000063
:104598002020000020200000202000002020000013
:1045a8002a0a00002a2a00002a2a00002a2a0000d3
:1045b8002a2a00002a2a00002a2a00002a2a0000a3
:1045c8002a2a00002a2a00002a2a00002a2a000093
:1045d8002a2a00002a2a00002a2a00002a2a000083
:1045e8002a2a00002a2a00002a2a00002a2a000073
:1045f8002a2a00002a2a00002a2a00002a2a000063
:104608002a2a00002a2a00002a2a00002a2a000052
:104618000a00000046610000737400002052000088
:10462800432000004f730000630a000000460000aa
:10463800617300007420000052430000204f000006
:104648007363000020770000697400006820000090
:10465800504c00004c0a0000005000007269000035
:104668006d61000072790000204f00007363000044
:1046780020280000585400002c2000004853000057
:104688002c20000045430000290a000000500000cb
:10469800726900006d61000072790000204f00000f
:1046a8007363000020280000585400002c200000ec
:1046b800485300002c20000045430000292000003a
:1046c8007769000074680000205000004c4c00001e
:1046d8000a00000053650000636f00006e6400006c
:1046e80061720000792000004f730000630a000027
:1046f800004c00006f770000205000006f7700002a
:104708006572000020520000432000004f73000033
:10471800630a000000460000617300007420000076
:1047280052430000204f0000736300002f31000047
:10473800360a000000460000617300007420000083
:1047480052430000204f0000736300002f4e00000a
:104758000a000000556e00006b6e00006f770000c5
:104768006e2000006f730000636900006c6c00002d
:10477800617400006f7200002074000079700000fe
:10478800652e0000000a00004465000076690000fc
:10479800636500002068000061730000206200006b
:1047a800656500006e200000696e0000207300003f
:1047b8006c65000065700000206d00006f640000eb
:1047c800650a0000000a00004465000076690000e0
:1047d800636500002068000061730000206200002b
:1047e800656500006e200000696e00002069000009
:1047f800646c0000652000006d6f000064650000b7
:104808000a0000000a520000657300006574000089
:104818002063000061750000736500003a20000005
:10482800005000006f770000657200002d6f0000d7
:104838006e2e00000a000000536f0000667400002e
:104848007761000072650000205200006573000067
:10485800657400002e0a0000005700006174000013
:1048680063680000646f000067200000546900005e
:104878006d6500006f750000743a000020000000ac
:104888000a0000004d4300004c5200002061000067
:104898007373000065720000746900006f6e000099
:1048a8002e0a000000420000726f0000776e0000c0
:1048b8002d6f0000757400002e0a000000540000df
:1048c8007261000070200000436f00006e660000f7
:1048d8006c690000637400002e0a000000490000a3
:1048e8006c6c000065670000616c000020430000ec
:1048f8006f6e000064690000746900006f6e00004c
:104908002e0a0000004300006f6e00006669000078
:104918006775000072610000746900006f6e000026
:10492800204d0000697300006d6100007463000091
:10493800682e00000a000000556e00006b6e000033
:104948006f7700006e20000072650000736500003c
:10495800742e00000a00000045720000726f00000b
:104968007220000074720000617000007065000021
:10497800643a00002000000050720000696f0000d7
:1049880072690000747900003a200000002c0000d1
:104998002056000065630000746f0000722000005c
:1049a8006e7500006d620000657200003a2000001c
:1049b800000a00000a0000000a0a0000596f0000ff
:1049c80075720000206300006c6f0000636b0000cc
:1049d80020630000686f0000696300006520000024
:1049e80066610000696c00006564000020740000c6
:1049f8006f200000696e00006974000069610000a2
:104a08006c6900007a6500002c20000068610000d5
:104a18007665000020730000776900007463000069
:104a28006865000064200000746f000020690000c1
:104a38006e740000657200006e6100006c2000005a
:104a480046610000737400002052000043200000fb
:104a58006f730000636900006c6c000061740000f3
:104a68006f720000202b0000504c00004c2e0000fc
:104a78000a43000068650000636b000020790000ad
:104a88006f750000722000007365000074740000e8
:104a9800696e000067200000666f00007220000049
:104aa8007468000065200000274300004c4f000098
:104ab800434b00005f4300004f4e00004649000092
:104ac80047270000206d000061630000726f00003e
:104ad8002e0a00005761000074630000682000007f
:104ae8007468000065200000636f00006d700000ae
:104af800696c000065720000206f0000757400008a
:104b08007075000074200000776900006e64000072
:104b18006f77000020770000686500006e200000b5
:104b28007069000063320000345f0000636c0000ad
:104b38006f6300006b66000072650000712e000054
:104b48006320000069730000206300006f6d00009f
:104b5800706900006c650000642c00002061000092
:104b680020770000617200006e6900006e67000027
:104b7800206d000065730000736100006765000028
:104b88000a770000696c00006c2000007465000062
:104b98006c6c0000207900006f7500002074000024
:104ba8006865000020730000656c00006563000004
:104bb8007465000064200000766100006c750000d8
:104bc80065200000666f0000722000002743000087
:104bd8004c4f0000434b00005f4300004f4e000065
:104be80046490000472700002e0a0000496e0000d1
:104bf800204d0000504c0000414200002c200000d5
:104c08007573000065200000507200006f6a000094
:104c180065630000742d00003e42000075690000c5
:104c28006c640000204f000070740000696f000081
:104c38006e7300002d3e0000507200006f6a000085
:104c480065630000742c0000207400006865000093
:104c58006e200000636c0000696300006b20000098
:104c68006f6e0000204d0000504c000041420000d3
:104c7800204300003330000020740000616200000f
:104c8800207400006f20000073650000652000009c
:104c980069660000200a00007468000065200000b2
:104ca8006d610000637200006f20000069730000ee
:104cb8002064000065660000696e000065640000fd
:104cc8002074000068650000726500002e20000056
:104cd800496600002074000068650000206d00002f
:104ce80061630000726f00002069000073200000fb
:104cf800736500006c65000063740000696e000055
:104d080067200000616e00002065000078740000d4
:104d1800657200006e6100006c2000006372000084
:104d280079730000746100006c2000002874000092
:104d38006865000020700000726900006d61000065
:104d480072790000206f000073630000696c000036
:104d58006c610000746f0000722900002c0a0000ca
:104d6800616e000064200000796f00007572000019
:104d7800206200006f61000072640000206400007f
:104d88006f650000732000006e6f00007420000043
:104d98006861000076650000206100002063000063
:104da8007279000073740000616c00002c20000010
:104db800796f000075200000776900006c6c0000b6
:104dc8002067000065740000207400006869000016
:104dd800732000006d6500007373000061670000b8
:104de800652e00000a440000656c00006574000030
:104df8006520000074680000652000006d610000f7
:104e0800637200006f20000064650000666900009e
:104e18006e690000746900006f6e00002066000073
:104e2800726f00006d2000007468000065200000ab
:104e38004d5000004c4100004220000070720000fc
:104e48006f6a000065630000742000006966000056
:104e5800207900006f75000020770000616e000067
:104e680074200000746f0000207500007365000056
:104e7800207400006865000020640000656600007a
:104e8800617500006c740000200a0000636c00006b
:104e98006f6300006b200000636800006f6900000a
:104ea80063650000206f0000662000004652000085
:104eb800432000002b200000504c00004c2e000026
:104ec8000a5900006f750000206d0000757300001e
:104ed8007420000072650000636f00006d700000b0
:104ee800696c000065200000616e0000642000000d
:104ef80072650000707200006f6700007261000048
:104f08006d200000776900007468000020610000cf
:104f18006e20000061700000707200006f70000069
:104f2800726900006174000065200000434c0000b5
:104f38004f4300004b5f0000434f00004e46000007
:104f48004947000020630000686f000069630000a3
:104f580065200000666f0000722000007468000081
:104f680069730000206300006f6400006520000082
:104f7800746f00002065000078650000637500000c
:104f8800746500002e0a00000045000072720000df
:104f98006f720000206900006e2000002e2e0000b5
:104fa8005c6c0000696200005c6300006f6d0000cb
:104fb8006d6f00006e5c00007069000063320000d5
:104fc800345f0000636c00006f6300006b660000d4
:104fd80072650000712e0000632000006c690000fb
:104fe8006e65000020310000393400003a200000ce
:104ff800415300005345000052540000287500003a
:10500800385f0000736f0000757200006365000070
:10501800203c0000203800002920000066610000c4
:10502800696c0000656400002e0a000000000000a2
:10503800554100005254000031200000706100000a
:105048007269000074790000206500007272000027
:105058006f7200000a000000554100005254000021
:105068003120000066720000616d0000696e00006a
:105078006720000065720000726f0000720a00006d
:10508800005500004152000054310000206f00001c
:105098007665000072720000756e000020650000e1
:1050a800727200006f7200000a0000004572000072
:1050b800726f000072200000696e0000202e000050
:1050c8002e5c00006c690000625c0000636f0000e9
:1050d8006d6d00006f6e00005c7000006963000079
:1050e800323400005f75000061720000742e000009
:1050f800632000006c6900006e650000203300002a
:10510800343100003a2000004153000053450000ac
:1051180052540000286600005f62000072670000b9
:10512800203c0000203600003535000033350000f3
:105138002e3500002920000066610000696c00001f
:10514800656400002e0a000000450000727200002d
:105158006f720000206900006e2000002e2e0000f3
:105168005c6c0000696200005c6300006f6d000009
:105178006d6f00006e5c0000706900006332000013
:10518800345f000075610000727400002e63000037
:10519800206c0000696e00006520000033380000b4
:1051a800383a0000204100005353000045520000e7
:1051b8005428000075330000325f0000626100006f
:1051c800756400005261000074650000203e000014
:1051d8003d20000031300000303000004c29000034
:1051e80020660000616900006c650000642e000004
:1051f8000a0000005541000052540000322000000f
:105208007061000072690000747900002065000078
:10521800727200006f7200000a0000005541000021
:10522800525400003220000066720000616d0000d8
:10523800696e00006720000065720000726f000050
:10524800720a00000055000041520000543200006c
:10525800206f00007665000072720000756e000015
:1052680020650000727200006f7200000a000000e2
:1052780045720000726f000072200000696e000025
:10528800202e00002e5c00006c690000625c0000ab
:10529800636f00006d6d00006f6e00005c700000b1
:1052a80069630000323400005f750000617200001d
:1052b800742e0000632000006c6900006e65000019
:1052c80020370000363000003a200000415300002b
:1052d8005345000052540000286600005f62000039
:1052e80072670000203c00002036000035350000c1
:1052f800333500002e3500002920000066610000cb
:10530800696c0000656400002e0a0000004500007a
:10531800727200006f720000206900006e200000a9
:105328002e2e00005c6c0000696200005c630000c7
:105338006f6d00006d6f00006e5c0000706900000a
:1053480063320000345f0000756100007274000071
:105358002e630000206c0000696e000065200000cc
:1053680038300000373a0000204100005353000055
:10537800455200005428000075330000325f0000d9
:1053880062610000756400005261000074650000ed
:10539800203e00003d200000313000003030000089
:1053a8004c29000020660000616900006c6500005f
:1053b800642e00000a00000045720000726f0000b1
:1053c80072200000696e0000202e00002e5c000094
:1053d8006c690000625c0000636f00006d6d000086
:1053e8006f6e00005c7000006963000032340000da
:1053f8005f73000065720000696100006c2e000098
:10540800632000006c6900006e6500002037000012
:10541800393a0000204900006e760000616c0000f7
:10542800696400002055000041520000540000004b
:1054380030780000000500000302000001050000ac
:1054480003020000013200001e1400000a050000db
:105458000302000001050000030200000100000033
:1054680050c3000030750000204e000010270000d7
:1054780088130000b80b0000d0070000e803000004
:10548800f40100002c010000c800000064000000c6
:10549800320000001e000000140000000a00000096
:1054a80005000000030000000200000001000000e9
:1054b80045720000726f000072200000696e0000e3
:1054c800202e00002e5c00006c690000625c000069
:1054d800636f00006d6d00006f6e00005c7000006f
:1054e80069630000323400005f73000065720000d9
:1054f800696100006c2e0000632000006c690000e8
:105508006e65000020320000393400003a200000a7
:10551800496e0000766100006c690000642000009c
:10552800554100005254000000450000727200000e
:105538006f720000206900006e2000002e2e00000f
:105548005c6c0000696200005c6300006f6d000025
:105558006d6f00006e5c000070690000633200002f
:10556800345f00007365000072690000616c000020
:105578002e630000206c0000696e000065200000aa
:1055880033330000333a0000204900006e760000f3
:10559800616c000069640000205500004152000061
:1055a800540000000a6300006f7500006e7400006c
:1055b800657200005f4c0000434400002e63000049
:1055c8002c20000062750000696c00007420000047
:1055d8006f6e0000204e00006f7600002020000053
:1055e8003620000032300000323200002061000016
:1055f80074200000313600003a340000363a0000ca
:10560800303300000a0000004c61000062200000f6
:10561800372000002d20000054610000736b00004b
:10562800203300000030000030300000002500006a
:085638002e33000064000000a5
:020000040000fa
:105640000a0ea9000c0ea900060ea900000ea90062
:105650000e0ea9000a8ea9000c8ea900068ea900c4
:10566000008ea9000e8ea9001a4ea9001c4ea9009a
:10567000164ea900104ea9001e4ea90000000600fb
:105680001a0ea9001c0ea900100ea8001e0ea900db
:105690001a0ea800180ea800000006001a2ea90075
:1056a0001c2ea900102ea8001e2ea9001a2ea8003c
:1056b000182ea800000006003600f800809fbe00eb
:1056c000821f78000268a90012cebf000008a30064
:1056d00006003a001210ec0002012000110009003f
:1056e0000200d800918088000400370012cebf006d
:1056f0000018a30001003a001230ef004f017800bb
:105700004f00be003600f90000400600152ea9002b
:105710001a8ea9001c8ea900168ea900108ea90051
:105720001aaea9001caea90016aea90010aea900c1
:105730001acea9001ccea90016cea90010cea90031
:105740001aeea9001ceea90016eea90010eea900a1
:10575000000006001a8ea9001c8ea900108ea80059
:105760001aaea9001caea90010aea8001acea9005e
:105770001ccea90010cea8001aeea9001ceea900ac
:1057800010eea800152ea800000006006141600080
:105790004411dd0041e12000914078000144a10066
:1057a00082c070008000fd0014eeb7008000fd0094
:1057b0000080fb000001d100614161004511dd0066
:1057c00041e12000914078000154a10082c07000a6
:1057d0008000fd0014eeb7008000fd004201de00f5
:1057e000614161004611dd0041e1200091407800f7
:1057f0000164a10082c070008000fd0014eeb700bb
:105800008000fd004300de004700dd0041e1200094
:10581000914078000174a10080c070000100780000
:1058200014eeb700000006001b0ea9001d0ea90013
:10583000170ea900110ea9001f0ea9001b2ea9000a
:105840001d2ea900172ea900112ea9001baea9001c
:105850001daea90017aea90011aea900152ea90012
:1058600015aea900150ea90000000600c003200017
:105870000100200079f30700208080003180800043
:1058800063004000e080480020808800318088006c
:1058900015aea800c0032000010020006ff3070030
:1058a000208080003180800063004000e08048005c
:1058b000208088003180880015aea900c003200038
:1058c0000100200065f30700208080003180800007
:1058d00063004000e080480020808800318088001c
:1058e00000000600889fbe008a9fbe008c1f7800c3
:1058f0008045780001457800034678000204e00006
:1059000029003200150ea90092ff070040c7bf0012
:105910004500de00e14460000060fe0040a7a800f2
:1059200015aea800c0032000010020004bf30700c3
:10593000208080003180800063004000e0804800cb
:10594000208088003180880028e1200018447800f9
:105950000884fb004744de0015aea900c003200008
:10596000010020003df3070022808000338080008a
:1059700063014100e0814900228088003380880073
:10598000baff07000804e000e5ff3a00e1c0640048
:10599000c508dd0040c7bf000054a10001407000f1
:1059a00040e7b7000b003700007c22009100200088
:1059b0002af30700c0272900010020002280800070
:1059c00033808000020140008381480022808800eb
:1059d000338088004dff07000a04e0000200320017
:1059e000150ea80001003700150ea9000b80fb0062
:1059f0004400de0065ff07009cff07000c04e00088
:105a0000030032000b40780060ff070097ff07009b
:105a10004f0678004f05be004f04be000000060090
:105a2000006c2c00d10220000cf30700c0c62d0032
:105a3000210020002280800033808000020140008d
:105a40008381480022808800338088008041eb00f9
:105a5000034178008340780000c2b300a1ff070033
:105a600013c0b3000041eb008240780080c2b30055
:105a70009cff070013c0b3000041eb008240780098
:105a800080c2b30097ff070013c0b3000041eb00d2
:105a90008240780060c0b30092ff070013c0b300db
:105aa0000041eb0082407800c0c0b3008dff0700ca
:105ab00013c0b3000041eb0082407800034078003f
:105ac00088ff070000f22b0021002000e3f207000e
:105ad00020bf22000100200022808000338080004f
:105ae00002014000838148002280880033808800c2
:105af00000000600881f780000047800104078003d
:105b00000004e0000700320013c0b3000341780036
:105b10008340780073ff0700584078000004e000dd
:105b2000f9ff3a004f047800000006000400fa0074
:105b3000881f78000004eb009880880060ad2a0080
:105b40008301070038ff0700b5ff07000a0ea90010
:105b50000c0ea900060ea900000ea9000e0ea90049
:105b60000a8ea9000c8ea900068ea900008ea9003d
:105b70000e8ea9001a4ea9001c4ea900164ea900af
:105b8000104ea9001e4ea9001a0ea9001c0ea90055
:105b9000100ea8001e0ea9001a0ea800180ea800cc
:105ba0001a2ea9001c2ea900102ea8001e2ea90036
:105bb0001a2ea800182ea800c00320000100200003
:105bc000a6f2070020808000318080006300400042
:105bd000e08048002080880031808800040ea90001
:105be000048ea800144ea9000268a9009184200028
:105bf000f0c8b300114060000054a0008048780055
:105c00002268a80080b02a00baff070013c0b300c2
:105c1000034178008840780000ccb30031ff0700d2
:105c200070b12a00b3ff070013c0b300034178002e
:105c30008040eb00034078002aff070080b02a0074
:105c4000acff070013c0b300034178008040eb00b5
:105c500000ccb30023ff07001210f800b1b12a00f6
:105c6000811f78006a805700a2f507006a805700fc
:105c7000a0ff0700e487570090808000ef0f5000de
:105c800003003a00040ea800048ea90002003700a9
:105c9000040ea900048ea80000b02100710b2000a2
:105ca0006ef20700001b2700b10020002280800058
:105cb00033808000020140008381480022808800f8
:105cc000338088000f000700d7ff37001beea900c4
:105cd0001deea90017eea90011eea90017eea8000d
:105ce000007c220000808800900020001080880046
:105cf0000430ef000630ef0015eea90001000700a8
:105d0000000006002080800031808000610140009a
:105d1000e081480022808800338088000080800075
:105d200011808000800f5100818f590003003600e0
:105d3000030007000430ef000630ef00000006000b
:105d400015cebf0000c0ea000080fb004700de0067
:105d50004700dd0052e12000924078000174a1006c
:105d600000c97000000006003600f800809fbe00e9
:105d7000829fbe00849fbe00869fbe003200f80056
:105d800000202000900188000000000040468000b4
:105d90007080880040022a00070007003200f900e6
:105da0004f03be004f02be004f01be004f00be00b9
:105db0003600f900004006000c10e20002003a0034
:105dc000608088000000fe000000060000017800ee
:105dd0004008de00a00288001280ba001201ba005a
:105de00001002000c000dd000000200003002000b2
:105df000020070008380700000000600889fbe00d3
:105e00008a9fbe008c9fbe008e1f7800000020007d
:105e1000f10f2000edff07000004be00200020006d
:105e2000f10f2000e9ff07000005be00d0e42100cb
:105e3000800f5400e08f5c0003003a001ec0b300e6
:105e4000ac032a00020037000047eb00cc042a0014
:105e50004d052a0030002400800f5500e08f5d00c2
:105e600001003200cd042a0070052a000402070058
:105e70000800be005502070040062a000002070085
:105e80000c007800fe01070070062a00fc010700e4
:105e90000a00be004d02070040062a00f801070074
:105ea0000d007800f601070040072a00f401070002
:105eb0000e04e00002003a0070072a00f00107001b
:105ec0004f0778004f06be004f05be004f04be00ce
:105ed0000000060043c7bf004400de00670060000a
:105ee000e34f50001600320004003e00e14f500026
:105ef0000d0032000f003e0008003700e54f500053
:105f00001500320011003900e64f50001500320034
:105f1000e74f500019003a0015003700e0302a0022
:105f2000d701070017003700b0312a00d40107005d
:105f30001400370010332a00d10107001100370088
:105f4000b0342a00ce0107000e003700e0362a00e8
:105f5000cb0107000b003700d0372a00c80107002b
:105f600008003700f0382a00c50107000500370097
:105f7000f0392a00c201070002003700e03a2a0087
:105f80008dff07000000060040c7bf000038a300d7
:105f900003003200703c2a00b90107004067a900e5
:105fa00040c7bf000028a30003003200703e2a0053
:105fb000b30107004047a90060402a00b001070074
:105fc00040c7bf000008a3000900320050412a006a
:105fd000ab0107004007a9004027a9000000eb0023
:105fe0006080880080808800708088003d003700d5
:105ff00040c7bf000044b20002003a008040780071
:106000000500370000422a009d01070040c7a90093
:1060100040e7a90011c0b30040c7bf000048a3007b
:106020000b00320010432a00950107008080800099
:106030000000e000010032009101070040442a0006
:106040008f0107004087a90040e7a90011c0b300f5
:106050004047e20004003d0060442a008801070038
:1060600040e7a90011c0b30040c7bf000018a3005b
:106070000400320070452a00810107004027a90072
:1060800011c0b3004147e20004003d0030462a0041
:106090007b01070041e7a90011c0b30041c7bf0061
:1060a0000068a3000400320030472a007401070092
:1060b00041c7a90011c0b30041c7bf000018a30029
:1060c0000400320070482a006d0107004127a90032
:1060d000040037000104e00002003a00004a2a00f0
:1060e000670107000c10e20015003200004b2a0087
:1060f0006301070060808000610107000e10e2006c
:106100000a003200004c2a005d0107007080800008
:106110004800de006f4060009a010700b04c2a0082
:10612000570107000ed0bf0096010700d04d2a008e
:10613000530107000000eb00608088007080880039
:106140002eff070063ff07000000060000000600a6
:10615000881f780000047800dcfe0700a102070019
:1061600000402800310020002702070086ff0700ba
:1061700008007800420107004f0478000000060084
:10618000889fbe008a9fbe000005be00c4f10700c4
:106190000004be00e00f5000e08f58000200350000
:1061a000daf10700090037006100600001002000fb
:1061b0008901d1000881d300020070008380700043
:1061c000d2f107000001be00fcf107000001be0093
:1061d0000a00be00f8f107000200200003f02300cf
:1061e00053f207000000e0000200350061044400a3
:1061f000e0844c000800be004f05be004f04be0006
:1062000000000600889fbe008a1f78008c9fbe0099
:106210000006be00a2f107000004be0000057800e1
:10622000cf80de00b9f107000800e00003003d0068
:106230000200200003782400e0f107000001be0006
:106240000c00be00dcf107000200200003f0230078
:1062500037f207000000e000010035000a05e80001
:106260000a0078004f06be004f0578004f04be00bc
:106270000000060022c2bf000038a3000300320065
:1062800030118000c0812a00cbfe070022c2bf006f
:106290000028a300030032003011800000832a0090
:1062a000c5fe070022c2bf000018a3000300320091
:1062b0002222a90050842a00bffe07000000060029
:1062c000881f78000044780023c2bf000018a30094
:1062d000040032008bfe070023c2bf000018a30099
:1062e000fcff3a000880fb00201188004f04780072
:1062f0000000060022c2bf0061006000000006002e
:1063000022c2bf000008a30004003a007dfe07007f
:1063100022c2bf000008a300fcff3200d5ff070027
:10632000301180000080fb0000000600889fbe0046
:106330008a9fbe000005be00c4c6bf0001c8b300ee
:1063400001406000a042b300c4e6b700916820009d
:1063500000ccb30011406000e34870002022ef0041
:10636000e00f5500e08f5d00030035000a00be001d
:1063700066f1070009003700610065000100200098
:106380008b01d1000a81d30002007000838070006d
:106390005ef107000001be0088f107000001be00a9
:1063a000001c2e0041c62400e3f10700020020007b
:1063b00003d8230022f207000200200003f8230084
:1063c0007df107000004be0002f82f00f3772400df
:1063d000d7f107000000e00002003500a0852a0088
:1063e00075fe07000800be0086ff07004011880008
:1063f00000002800001188000040200010118800d3
:10640000703e2000800f5500e08f5d0002003e00ce
:10641000908a2a0068fe070000a62e0001002000d6
:106420008ef0070060ea200001002000228080003a
:106430003380800002014000838148002280880070
:10644000338088002222a90001003700301180002b
:1064500022c2bf000038a300fcff3a0022c2bf00e6
:106460000028a300f9ff3a004f05be004f04be000c
:106470000000060032c2bf000038a3000300320053
:10648000b0118000e08f2a004bfe070032c2bf002f
:106490000028a30003003200b011800020912a00e0
:1064a00045fe070032c2bf000018a30003003200ff
:1064b0003222a90070922a003ffe07000000060069
:1064c000881f78000044780033c2bf000018a30082
:1064d000040032000bfe070033c2bf000018a30007
:1064e000fcff3a000880fb00a01188004f047800f0
:1064f0000000060032c2bf0061006000000006001c
:1065000032c2bf000008a30004003a00fdfd0700ee
:1065100032c2bf000008a300fcff3200d5ff070015
:10652000b01180000080fb0000000600889fbe00c4
:106530008a9fbe000005be003022ef00e00f500031
:10654000e08f580002003500f0f007000900370026
:1065500061006000010020008b01d1000a81d3009e
:106560000200700083807000e8f007000001be00a8
:1065700012f107000001be00001c2e0041c62400dd
:106580006df107000200200003d82300acf10700e2
:106590000200200003f8230007f107000004be00fa
:1065a00002f82f00f377240061f107000000e000fb
:1065b00002003500c0932a00fffd07000800be005e
:1065c00010ff0700c011880000002800801188001b
:1065d0000040200090118800703e2000800f550080
:1065e000e08f5d0002003e00b0982a00f2fd070037
:1065f00000a62e000100200018f0070060ea20002d
:1066000001002000228080003380800002014000d1
:106610008381480022808800338088003222a900cc
:1066200001003700b011800032c2bf000038a30063
:10663000fcff3a0032c2bf000028a300f9ff3a0075
:106640004f05be004f04be000000060051888000c8
:10665000e18f500003003200e28f500005003a0045
:106660000200370016ff07000400370094ff070000
:1066700002003700009e2a00cffd07000000060040
:10668000881f780000047800104078000004e000c3
:1066900004003200edff0700584078000004e000dd
:1066a000fcff3a004f04780000000600889fbe00ff
:1066b0008a9fbe000004be00824578000005eb0002
:1066c0000100e00002003a00010578000e003700ea
:1066d0000b04e00002003200b300070001003700a5
:1066e000a1000700ea4f500006003200ed4f5000b5
:1066f00004003200005c78000a05e8008a8f54002c
:10670000f3ff3a00004ceb000a0078004f05be0092
:106710004f04be00000006000041eb00e3ff07004d
:106720000000060012c0b300e0ff070000000600f2
:10673000881f7800004478000080fb004400de00e1
:10674000e94f5000030036007043b000bfff070060
:10675000020037000043b000bcff07006f40640038
:10676000e94f5000030036007043b000b7ff070048
:10677000020037000043b000b4ff07004f04780068
:1067800000000600881f780000447800c0a12a009d
:10679000bbff070008407800e5ff07004f047800c2
:1067a00000000600881f780000047800c0a12a00bd
:1067b000b3ff07004840de00ddff07000840780017
:1067c000dbff07004f04780000000600889fbe0032
:1067d0000004be00c0a12a00a9ff07004848de004f
:1067e00001002000d2ff07004048de000100200029
:1067f000cfff07004849dd004840de00000071007f
:10680000c848de00caff070008407800c8ff07003c
:106810004f04be00000006000600fa008040780029
:1068200000c3b300a0ff9f00b0ff9f00c0ff9f0008
:106830000040eb00d0ff9f0070ccb30080cf500031
:1068400002003e0001417800050037002ff8970054
:1068500000c0e800a0ff9f0086c3b30006c140004f
:1068600030c6b300804f5100050036002ff8970066
:106870000040e800a0ff9f00c0c9b30000414100f4
:106880008001eb0074a22a00f5a12a009440780050
:1068900082cf500008003e000380fb004200de0073
:1068a0000000e800668357000600400010437800af
:1068b00015484300014151008301e8000402e8004b
:1068c0008502e800e88f5100f0ff3a000040eb003d
:1068d000d0ff9f006680570069ff07000080fa0024
:1068e000000006000600fa0001c3b300a1ff9f00ec
:1068f000b1ff9f00c1ff9f00d1ff9f00e1ff9f00fc
:10690000000278008001eb0045a32a00f6a22a00cd
:1069100015017800840f510009003e008380fb00c0
:10692000c208de00668057008080400063806100fe
:10693000060040009143780090c8430002025200d4
:106940008301e8008582e800f48f5100f0ff3a00ef
:106950000040eb00f0ff9f006680570048ff0700f3
:106960000080fa000000060050888000e10f50000f
:1069700003003200e20f500007003a000300370026
:106980005ffe07000080fb0006003700dcfe07000a
:106990000080fb0003003700c0a52a0006fd0700a9
:1069a0000000eb0000000600881f7800eeff0700e3
:1069b0000044780025ff07000884fb0008007800e9
:1069c0004f0478000000060050888000e10f50005e
:1069d00003003200e20f500007003a0003003700c6
:1069e00044fe07000080fb0006003700c1fe0700e0
:1069f0000080fb000300370090a92a00eefc07008e
:106a00000000eb0000000600120020005288880001
:106a100046fe070000000600720007000040280044
:106a200031002000f8ff0700a0aa2600411724002b
:106a3000f4fd0700401188002062a9000000060054
:106a400040808000518080000082eb008082eb005b
:106a5000840f5000858f5800100032006101400003
:106a6000e08148004280880053808800f0d32000f5
:106a700031002000800f5100818f5900070036003f
:106a80004480880055808800e3ff0700004e2a00fc
:106a9000fbfe07009bfc0700feff3700000006001e
:106aa0000200fa00881f780000447800e74f500089
:106ab00002003600907c2a00bffc0700ff3ffc006c
:106ac0002074200010007800e0bf9f006700640081
:106ad0004800dd00f18f2f006fb9970001016100c0
:106ae00080017100030078000000a000e0bf9f005b
:106af0005ff897000080fb00a209200081072000ba
:106b000033742000814978008249780080497800f8
:106b10004ff897000081fb00710520006004200001
:106b200023742000804978008149780082497800e8
:106b30000000fc0042c7bf000008a30004003200b0
:106b4000bfff070042c7bf000008a300fcff3a00d8
:106b5000e14f540014003200e34f540005003a00a6
:106b600011003700b6ff070042c7bf000058a3005e
:106b7000fcff320043c7bf004400de000884fb0076
:106b800067006000880f50000b003200acff070068
:106b900043c7bf004400de0067006000880f50005c
:106ba00005003200f9ff370042c7bf000058a300bc
:106bb000f0ff3a00ebff37004f0478000080fa0046
:106bc00000000600000006000040eb00b4ff0700d4
:106bd00048c7bf0001ccb3000140600048e7b700e0
:106be000000006000040eb00adff070048c7bf00f3
:106bf00001ccb3000140600048e7b70044c7bf00c4
:106c000001ceb3000140600044e7b700303a800095
:106c100001e02f0001006000f003b300303a88006b
:106c200044c7bf00f043b20044e7b70010c0b30050
:106c30009bff0700000006000040eb0098ff0700e4
:106c400048c7bf0001ccb3000140600048e7b7006f
:106c500044c7bf0001ceb3000140600044e7b70065
:106c6000303a800001e02f0001006000a004b30072
:106c7000303a880044c7bf00f043b20044e7b70091
:106c800010c0b30086ff0700000006000040eb00c4
:106c900083ff070044c7bf0001ceb300014060007e
:106ca00044e7b700303a800001e02f0001006000a7
:106cb0006002b300303a880044c7bf00f043b2001e
:106cc00044e7b70030c0b30075ff070000000600be
:020000040000fa
:106cd0000810000004000000800000000010000008
:106ce00008000000800000001210000002000000f8
:106cf000800000000a110000020000008200000075
:106d00000100000014100000a0000000820000003c
:106d1000010000000000000000000a000000000068
:106d200000000000006400000000000000000000ff
:106d3000e803000000000000000010002700000031
:106d40000000000000a0860001000000000000001c
:106d500040420f00000000000000800096980000f4
:106d6000000000000000e100f50500000000000048
:106d700000ca9a003b00000000000000e40b540031
:106d8000020000000000e800764817000000000044
:106d90000010a500d4e8000000000000a0724e0022
:106da00018090000000040007a10f3005a000000ab
:106db0000080c600a47e8d000300000000c16f00ab
:106dc000f2862300000000008a5d78004563010020
:106dd00000006400a7b3b600e00d000000e88900e1
:106de0000423c7008a000000b41000002a0000003d
:106df00082000000286e75006c6c290000303100a4
:106e000032333400353637003839410042434400cc
:106e10004546000030313200333435003637380013
:106e2000396162006364650066000000de100000e6
:106e30002600000082000000e010060011000000a3
:106e4000061109000000000002000400110000000b
:106e50000411060002010000000000000000000014
:106e60000000060002020000000000000411000003
:0c6e700006000000800000000000000090
:00000001FF
